{
	"HomeWork9.sol": {
		"MusicAsset": {
			"abi": [
				{
					"inputs": [
						{
							"internalType": "string",
							"name": "nameSingle",
							"type": "string"
						},
						{
							"internalType": "string",
							"name": "_nameSong",
							"type": "string"
						}
					],
					"stateMutability": "nonpayable",
					"type": "constructor"
				},
				{
					"inputs": [],
					"name": "getDetails",
					"outputs": [
						{
							"internalType": "string",
							"name": "",
							"type": "string"
						},
						{
							"internalType": "string",
							"name": "",
							"type": "string"
						},
						{
							"internalType": "address",
							"name": "",
							"type": "address"
						}
					],
					"stateMutability": "view",
					"type": "function"
				},
				{
					"inputs": [
						{
							"internalType": "address",
							"name": "newOwner",
							"type": "address"
						},
						{
							"internalType": "string",
							"name": "newNameSingle",
							"type": "string"
						}
					],
					"name": "transferOwnership",
					"outputs": [],
					"stateMutability": "nonpayable",
					"type": "function"
				}
			],
			"devdoc": {
				"kind": "dev",
				"methods": {},
				"version": 1
			},
			"evm": {
				"assembly": "    /* \"HomeWork9.sol\":1570:2105  contract MusicAsset is AbstractAsset {... */\n  mstore(0x40, 0x80)\n    /* \"HomeWork9.sol\":1651:1779  constructor(string memory nameSingle, string memory _nameSong) AbstractAsset(nameSingle) {... */\n  callvalue\n  dup1\n  iszero\n  tag_1\n  jumpi\n  0x00\n  dup1\n  revert\ntag_1:\n  pop\n  mload(0x40)\n  sub(codesize, bytecodeSize)\n  dup1\n  bytecodeSize\n  dup4\n  codecopy\n  dup2\n  dup2\n  add\n  0x40\n  mstore\n  dup2\n  add\n  swap1\n  tag_2\n  swap2\n  swap1\n  tag_3\n  jump\t// in\ntag_2:\n    /* \"HomeWork9.sol\":1728:1738  nameSingle */\n  dup2\n    /* \"HomeWork9.sol\":457:462  _name */\n  dup1\n    /* \"HomeWork9.sol\":450:454  name */\n  0x00\n    /* \"HomeWork9.sol\":450:462  name = _name */\n  swap1\n  dup2\n  tag_7\n  swap2\n  swap1\n  tag_8\n  jump\t// in\ntag_7:\n  pop\n    /* \"HomeWork9.sol\":481:491  msg.sender */\n  caller\n    /* \"HomeWork9.sol\":473:478  owner */\n  0x01\n  0x00\n    /* \"HomeWork9.sol\":473:491  owner = msg.sender */\n  0x0100\n  exp\n  dup2\n  sload\n  dup2\n  0xffffffffffffffffffffffffffffffffffffffff\n  mul\n  not\n  and\n  swap1\n  dup4\n  0xffffffffffffffffffffffffffffffffffffffff\n  and\n  mul\n  or\n  swap1\n  sstore\n  pop\n    /* \"HomeWork9.sol\":406:499  constructor(string memory _name) {... */\n  pop\n    /* \"HomeWork9.sol\":1762:1771  _nameSong */\n  dup1\n    /* \"HomeWork9.sol\":1751:1759  nameSong */\n  0x03\n    /* \"HomeWork9.sol\":1751:1771  nameSong = _nameSong */\n  swap1\n  dup2\n  tag_10\n  swap2\n  swap1\n  tag_8\n  jump\t// in\ntag_10:\n  pop\n    /* \"HomeWork9.sol\":1651:1779  constructor(string memory nameSingle, string memory _nameSong) AbstractAsset(nameSingle) {... */\n  pop\n  pop\n    /* \"HomeWork9.sol\":1570:2105  contract MusicAsset is AbstractAsset {... */\n  jump(tag_11)\n    /* \"#utility.yul\":7:82   */\ntag_12:\n    /* \"#utility.yul\":40:46   */\n  0x00\n    /* \"#utility.yul\":73:75   */\n  0x40\n    /* \"#utility.yul\":67:76   */\n  mload\n    /* \"#utility.yul\":57:76   */\n  swap1\n  pop\n    /* \"#utility.yul\":7:82   */\n  swap1\n  jump\t// out\n    /* \"#utility.yul\":88:205   */\ntag_13:\n    /* \"#utility.yul\":197:198   */\n  0x00\n    /* \"#utility.yul\":194:195   */\n  dup1\n    /* \"#utility.yul\":187:199   */\n  revert\n    /* \"#utility.yul\":211:328   */\ntag_14:\n    /* \"#utility.yul\":320:321   */\n  0x00\n    /* \"#utility.yul\":317:318   */\n  dup1\n    /* \"#utility.yul\":310:322   */\n  revert\n    /* \"#utility.yul\":334:451   */\ntag_15:\n    /* \"#utility.yul\":443:444   */\n  0x00\n    /* \"#utility.yul\":440:441   */\n  dup1\n    /* \"#utility.yul\":433:445   */\n  revert\n    /* \"#utility.yul\":457:574   */\ntag_16:\n    /* \"#utility.yul\":566:567   */\n  0x00\n    /* \"#utility.yul\":563:564   */\n  dup1\n    /* \"#utility.yul\":556:568   */\n  revert\n    /* \"#utility.yul\":580:682   */\ntag_17:\n    /* \"#utility.yul\":621:627   */\n  0x00\n    /* \"#utility.yul\":672:674   */\n  0x1f\n    /* \"#utility.yul\":668:675   */\n  not\n    /* \"#utility.yul\":663:665   */\n  0x1f\n    /* \"#utility.yul\":656:661   */\n  dup4\n    /* \"#utility.yul\":652:666   */\n  add\n    /* \"#utility.yul\":648:676   */\n  and\n    /* \"#utility.yul\":638:676   */\n  swap1\n  pop\n    /* \"#utility.yul\":580:682   */\n  swap2\n  swap1\n  pop\n  jump\t// out\n    /* \"#utility.yul\":688:868   */\ntag_18:\n    /* \"#utility.yul\":736:813   */\n  0x4e487b7100000000000000000000000000000000000000000000000000000000\n    /* \"#utility.yul\":733:734   */\n  0x00\n    /* \"#utility.yul\":726:814   */\n  mstore\n    /* \"#utility.yul\":833:837   */\n  0x41\n    /* \"#utility.yul\":830:831   */\n  0x04\n    /* \"#utility.yul\":823:838   */\n  mstore\n    /* \"#utility.yul\":857:861   */\n  0x24\n    /* \"#utility.yul\":854:855   */\n  0x00\n    /* \"#utility.yul\":847:862   */\n  revert\n    /* \"#utility.yul\":874:1155   */\ntag_19:\n    /* \"#utility.yul\":957:984   */\n  tag_53\n    /* \"#utility.yul\":979:983   */\n  dup3\n    /* \"#utility.yul\":957:984   */\n  tag_17\n  jump\t// in\ntag_53:\n    /* \"#utility.yul\":949:955   */\n  dup2\n    /* \"#utility.yul\":945:985   */\n  add\n    /* \"#utility.yul\":1087:1093   */\n  dup2\n    /* \"#utility.yul\":1075:1085   */\n  dup2\n    /* \"#utility.yul\":1072:1094   */\n  lt\n    /* \"#utility.yul\":1051:1069   */\n  0xffffffffffffffff\n    /* \"#utility.yul\":1039:1049   */\n  dup3\n    /* \"#utility.yul\":1036:1070   */\n  gt\n    /* \"#utility.yul\":1033:1095   */\n  or\n    /* \"#utility.yul\":1030:1118   */\n  iszero\n  tag_54\n  jumpi\n    /* \"#utility.yul\":1098:1116   */\n  tag_55\n  tag_18\n  jump\t// in\ntag_55:\n    /* \"#utility.yul\":1030:1118   */\ntag_54:\n    /* \"#utility.yul\":1138:1148   */\n  dup1\n    /* \"#utility.yul\":1134:1136   */\n  0x40\n    /* \"#utility.yul\":1127:1149   */\n  mstore\n    /* \"#utility.yul\":917:1155   */\n  pop\n    /* \"#utility.yul\":874:1155   */\n  pop\n  pop\n  jump\t// out\n    /* \"#utility.yul\":1161:1290   */\ntag_20:\n    /* \"#utility.yul\":1195:1201   */\n  0x00\n    /* \"#utility.yul\":1222:1242   */\n  tag_57\n  tag_12\n  jump\t// in\ntag_57:\n    /* \"#utility.yul\":1212:1242   */\n  swap1\n  pop\n    /* \"#utility.yul\":1251:1284   */\n  tag_58\n    /* \"#utility.yul\":1279:1283   */\n  dup3\n    /* \"#utility.yul\":1271:1277   */\n  dup3\n    /* \"#utility.yul\":1251:1284   */\n  tag_19\n  jump\t// in\ntag_58:\n    /* \"#utility.yul\":1161:1290   */\n  swap2\n  swap1\n  pop\n  jump\t// out\n    /* \"#utility.yul\":1296:1604   */\ntag_21:\n    /* \"#utility.yul\":1358:1362   */\n  0x00\n    /* \"#utility.yul\":1448:1466   */\n  0xffffffffffffffff\n    /* \"#utility.yul\":1440:1446   */\n  dup3\n    /* \"#utility.yul\":1437:1467   */\n  gt\n    /* \"#utility.yul\":1434:1490   */\n  iszero\n  tag_60\n  jumpi\n    /* \"#utility.yul\":1470:1488   */\n  tag_61\n  tag_18\n  jump\t// in\ntag_61:\n    /* \"#utility.yul\":1434:1490   */\ntag_60:\n    /* \"#utility.yul\":1508:1537   */\n  tag_62\n    /* \"#utility.yul\":1530:1536   */\n  dup3\n    /* \"#utility.yul\":1508:1537   */\n  tag_17\n  jump\t// in\ntag_62:\n    /* \"#utility.yul\":1500:1537   */\n  swap1\n  pop\n    /* \"#utility.yul\":1592:1596   */\n  0x20\n    /* \"#utility.yul\":1586:1590   */\n  dup2\n    /* \"#utility.yul\":1582:1597   */\n  add\n    /* \"#utility.yul\":1574:1597   */\n  swap1\n  pop\n    /* \"#utility.yul\":1296:1604   */\n  swap2\n  swap1\n  pop\n  jump\t// out\n    /* \"#utility.yul\":1610:1856   */\ntag_22:\n    /* \"#utility.yul\":1691:1692   */\n  0x00\n    /* \"#utility.yul\":1701:1814   */\ntag_64:\n    /* \"#utility.yul\":1715:1721   */\n  dup4\n    /* \"#utility.yul\":1712:1713   */\n  dup2\n    /* \"#utility.yul\":1709:1722   */\n  lt\n    /* \"#utility.yul\":1701:1814   */\n  iszero\n  tag_66\n  jumpi\n    /* \"#utility.yul\":1800:1801   */\n  dup1\n    /* \"#utility.yul\":1795:1798   */\n  dup3\n    /* \"#utility.yul\":1791:1802   */\n  add\n    /* \"#utility.yul\":1785:1803   */\n  mload\n    /* \"#utility.yul\":1781:1782   */\n  dup2\n    /* \"#utility.yul\":1776:1779   */\n  dup5\n    /* \"#utility.yul\":1772:1783   */\n  add\n    /* \"#utility.yul\":1765:1804   */\n  mstore\n    /* \"#utility.yul\":1737:1739   */\n  0x20\n    /* \"#utility.yul\":1734:1735   */\n  dup2\n    /* \"#utility.yul\":1730:1740   */\n  add\n    /* \"#utility.yul\":1725:1740   */\n  swap1\n  pop\n    /* \"#utility.yul\":1701:1814   */\n  jump(tag_64)\ntag_66:\n    /* \"#utility.yul\":1848:1849   */\n  0x00\n    /* \"#utility.yul\":1839:1845   */\n  dup5\n    /* \"#utility.yul\":1834:1837   */\n  dup5\n    /* \"#utility.yul\":1830:1846   */\n  add\n    /* \"#utility.yul\":1823:1850   */\n  mstore\n    /* \"#utility.yul\":1672:1856   */\n  pop\n    /* \"#utility.yul\":1610:1856   */\n  pop\n  pop\n  pop\n  jump\t// out\n    /* \"#utility.yul\":1862:2296   */\ntag_23:\n    /* \"#utility.yul\":1951:1956   */\n  0x00\n    /* \"#utility.yul\":1976:2042   */\n  tag_68\n    /* \"#utility.yul\":1992:2041   */\n  tag_69\n    /* \"#utility.yul\":2034:2040   */\n  dup5\n    /* \"#utility.yul\":1992:2041   */\n  tag_21\n  jump\t// in\ntag_69:\n    /* \"#utility.yul\":1976:2042   */\n  tag_20\n  jump\t// in\ntag_68:\n    /* \"#utility.yul\":1967:2042   */\n  swap1\n  pop\n    /* \"#utility.yul\":2065:2071   */\n  dup3\n    /* \"#utility.yul\":2058:2063   */\n  dup2\n    /* \"#utility.yul\":2051:2072   */\n  mstore\n    /* \"#utility.yul\":2103:2107   */\n  0x20\n    /* \"#utility.yul\":2096:2101   */\n  dup2\n    /* \"#utility.yul\":2092:2108   */\n  add\n    /* \"#utility.yul\":2141:2144   */\n  dup5\n    /* \"#utility.yul\":2132:2138   */\n  dup5\n    /* \"#utility.yul\":2127:2130   */\n  dup5\n    /* \"#utility.yul\":2123:2139   */\n  add\n    /* \"#utility.yul\":2120:2145   */\n  gt\n    /* \"#utility.yul\":2117:2229   */\n  iszero\n  tag_70\n  jumpi\n    /* \"#utility.yul\":2148:2227   */\n  tag_71\n  tag_16\n  jump\t// in\ntag_71:\n    /* \"#utility.yul\":2117:2229   */\ntag_70:\n    /* \"#utility.yul\":2238:2290   */\n  tag_72\n    /* \"#utility.yul\":2283:2289   */\n  dup5\n    /* \"#utility.yul\":2278:2281   */\n  dup3\n    /* \"#utility.yul\":2273:2276   */\n  dup6\n    /* \"#utility.yul\":2238:2290   */\n  tag_22\n  jump\t// in\ntag_72:\n    /* \"#utility.yul\":1957:2296   */\n  pop\n    /* \"#utility.yul\":1862:2296   */\n  swap4\n  swap3\n  pop\n  pop\n  pop\n  jump\t// out\n    /* \"#utility.yul\":2316:2671   */\ntag_24:\n    /* \"#utility.yul\":2383:2388   */\n  0x00\n    /* \"#utility.yul\":2432:2435   */\n  dup3\n    /* \"#utility.yul\":2425:2429   */\n  0x1f\n    /* \"#utility.yul\":2417:2423   */\n  dup4\n    /* \"#utility.yul\":2413:2430   */\n  add\n    /* \"#utility.yul\":2409:2436   */\n  slt\n    /* \"#utility.yul\":2399:2521   */\n  tag_74\n  jumpi\n    /* \"#utility.yul\":2440:2519   */\n  tag_75\n  tag_15\n  jump\t// in\ntag_75:\n    /* \"#utility.yul\":2399:2521   */\ntag_74:\n    /* \"#utility.yul\":2550:2556   */\n  dup2\n    /* \"#utility.yul\":2544:2557   */\n  mload\n    /* \"#utility.yul\":2575:2665   */\n  tag_76\n    /* \"#utility.yul\":2661:2664   */\n  dup5\n    /* \"#utility.yul\":2653:2659   */\n  dup3\n    /* \"#utility.yul\":2646:2650   */\n  0x20\n    /* \"#utility.yul\":2638:2644   */\n  dup7\n    /* \"#utility.yul\":2634:2651   */\n  add\n    /* \"#utility.yul\":2575:2665   */\n  tag_23\n  jump\t// in\ntag_76:\n    /* \"#utility.yul\":2566:2665   */\n  swap2\n  pop\n    /* \"#utility.yul\":2389:2671   */\n  pop\n    /* \"#utility.yul\":2316:2671   */\n  swap3\n  swap2\n  pop\n  pop\n  jump\t// out\n    /* \"#utility.yul\":2677:3530   */\ntag_3:\n    /* \"#utility.yul\":2776:2782   */\n  0x00\n    /* \"#utility.yul\":2784:2790   */\n  dup1\n    /* \"#utility.yul\":2833:2835   */\n  0x40\n    /* \"#utility.yul\":2821:2830   */\n  dup4\n    /* \"#utility.yul\":2812:2819   */\n  dup6\n    /* \"#utility.yul\":2808:2831   */\n  sub\n    /* \"#utility.yul\":2804:2836   */\n  slt\n    /* \"#utility.yul\":2801:2920   */\n  iszero\n  tag_78\n  jumpi\n    /* \"#utility.yul\":2839:2918   */\n  tag_79\n  tag_13\n  jump\t// in\ntag_79:\n    /* \"#utility.yul\":2801:2920   */\ntag_78:\n    /* \"#utility.yul\":2980:2981   */\n  0x00\n    /* \"#utility.yul\":2969:2978   */\n  dup4\n    /* \"#utility.yul\":2965:2982   */\n  add\n    /* \"#utility.yul\":2959:2983   */\n  mload\n    /* \"#utility.yul\":3010:3028   */\n  0xffffffffffffffff\n    /* \"#utility.yul\":3002:3008   */\n  dup2\n    /* \"#utility.yul\":2999:3029   */\n  gt\n    /* \"#utility.yul\":2996:3113   */\n  iszero\n  tag_80\n  jumpi\n    /* \"#utility.yul\":3032:3111   */\n  tag_81\n  tag_14\n  jump\t// in\ntag_81:\n    /* \"#utility.yul\":2996:3113   */\ntag_80:\n    /* \"#utility.yul\":3137:3211   */\n  tag_82\n    /* \"#utility.yul\":3203:3210   */\n  dup6\n    /* \"#utility.yul\":3194:3200   */\n  dup3\n    /* \"#utility.yul\":3183:3192   */\n  dup7\n    /* \"#utility.yul\":3179:3201   */\n  add\n    /* \"#utility.yul\":3137:3211   */\n  tag_24\n  jump\t// in\ntag_82:\n    /* \"#utility.yul\":3127:3211   */\n  swap3\n  pop\n    /* \"#utility.yul\":2930:3221   */\n  pop\n    /* \"#utility.yul\":3281:3283   */\n  0x20\n    /* \"#utility.yul\":3270:3279   */\n  dup4\n    /* \"#utility.yul\":3266:3284   */\n  add\n    /* \"#utility.yul\":3260:3285   */\n  mload\n    /* \"#utility.yul\":3312:3330   */\n  0xffffffffffffffff\n    /* \"#utility.yul\":3304:3310   */\n  dup2\n    /* \"#utility.yul\":3301:3331   */\n  gt\n    /* \"#utility.yul\":3298:3415   */\n  iszero\n  tag_83\n  jumpi\n    /* \"#utility.yul\":3334:3413   */\n  tag_84\n  tag_14\n  jump\t// in\ntag_84:\n    /* \"#utility.yul\":3298:3415   */\ntag_83:\n    /* \"#utility.yul\":3439:3513   */\n  tag_85\n    /* \"#utility.yul\":3505:3512   */\n  dup6\n    /* \"#utility.yul\":3496:3502   */\n  dup3\n    /* \"#utility.yul\":3485:3494   */\n  dup7\n    /* \"#utility.yul\":3481:3503   */\n  add\n    /* \"#utility.yul\":3439:3513   */\n  tag_24\n  jump\t// in\ntag_85:\n    /* \"#utility.yul\":3429:3513   */\n  swap2\n  pop\n    /* \"#utility.yul\":3231:3523   */\n  pop\n    /* \"#utility.yul\":2677:3530   */\n  swap3\n  pop\n  swap3\n  swap1\n  pop\n  jump\t// out\n    /* \"#utility.yul\":3536:3635   */\ntag_25:\n    /* \"#utility.yul\":3588:3594   */\n  0x00\n    /* \"#utility.yul\":3622:3627   */\n  dup2\n    /* \"#utility.yul\":3616:3628   */\n  mload\n    /* \"#utility.yul\":3606:3628   */\n  swap1\n  pop\n    /* \"#utility.yul\":3536:3635   */\n  swap2\n  swap1\n  pop\n  jump\t// out\n    /* \"#utility.yul\":3641:3821   */\ntag_26:\n    /* \"#utility.yul\":3689:3766   */\n  0x4e487b7100000000000000000000000000000000000000000000000000000000\n    /* \"#utility.yul\":3686:3687   */\n  0x00\n    /* \"#utility.yul\":3679:3767   */\n  mstore\n    /* \"#utility.yul\":3786:3790   */\n  0x22\n    /* \"#utility.yul\":3783:3784   */\n  0x04\n    /* \"#utility.yul\":3776:3791   */\n  mstore\n    /* \"#utility.yul\":3810:3814   */\n  0x24\n    /* \"#utility.yul\":3807:3808   */\n  0x00\n    /* \"#utility.yul\":3800:3815   */\n  revert\n    /* \"#utility.yul\":3827:4147   */\ntag_27:\n    /* \"#utility.yul\":3871:3877   */\n  0x00\n    /* \"#utility.yul\":3908:3909   */\n  0x02\n    /* \"#utility.yul\":3902:3906   */\n  dup3\n    /* \"#utility.yul\":3898:3910   */\n  div\n    /* \"#utility.yul\":3888:3910   */\n  swap1\n  pop\n    /* \"#utility.yul\":3955:3956   */\n  0x01\n    /* \"#utility.yul\":3949:3953   */\n  dup3\n    /* \"#utility.yul\":3945:3957   */\n  and\n    /* \"#utility.yul\":3976:3994   */\n  dup1\n    /* \"#utility.yul\":3966:4047   */\n  tag_89\n  jumpi\n    /* \"#utility.yul\":4032:4036   */\n  0x7f\n    /* \"#utility.yul\":4024:4030   */\n  dup3\n    /* \"#utility.yul\":4020:4037   */\n  and\n    /* \"#utility.yul\":4010:4037   */\n  swap2\n  pop\n    /* \"#utility.yul\":3966:4047   */\ntag_89:\n    /* \"#utility.yul\":4094:4096   */\n  0x20\n    /* \"#utility.yul\":4086:4092   */\n  dup3\n    /* \"#utility.yul\":4083:4097   */\n  lt\n    /* \"#utility.yul\":4063:4081   */\n  dup2\n    /* \"#utility.yul\":4060:4098   */\n  sub\n    /* \"#utility.yul\":4057:4141   */\n  tag_90\n  jumpi\n    /* \"#utility.yul\":4113:4131   */\n  tag_91\n  tag_26\n  jump\t// in\ntag_91:\n    /* \"#utility.yul\":4057:4141   */\ntag_90:\n    /* \"#utility.yul\":3878:4147   */\n  pop\n    /* \"#utility.yul\":3827:4147   */\n  swap2\n  swap1\n  pop\n  jump\t// out\n    /* \"#utility.yul\":4153:4294   */\ntag_28:\n    /* \"#utility.yul\":4202:4206   */\n  0x00\n    /* \"#utility.yul\":4225:4228   */\n  dup2\n    /* \"#utility.yul\":4217:4228   */\n  swap1\n  pop\n    /* \"#utility.yul\":4248:4251   */\n  dup2\n    /* \"#utility.yul\":4245:4246   */\n  0x00\n    /* \"#utility.yul\":4238:4252   */\n  mstore\n    /* \"#utility.yul\":4282:4286   */\n  0x20\n    /* \"#utility.yul\":4279:4280   */\n  0x00\n    /* \"#utility.yul\":4269:4287   */\n  keccak256\n    /* \"#utility.yul\":4261:4287   */\n  swap1\n  pop\n    /* \"#utility.yul\":4153:4294   */\n  swap2\n  swap1\n  pop\n  jump\t// out\n    /* \"#utility.yul\":4300:4393   */\ntag_29:\n    /* \"#utility.yul\":4337:4343   */\n  0x00\n    /* \"#utility.yul\":4384:4386   */\n  0x20\n    /* \"#utility.yul\":4379:4381   */\n  0x1f\n    /* \"#utility.yul\":4372:4377   */\n  dup4\n    /* \"#utility.yul\":4368:4382   */\n  add\n    /* \"#utility.yul\":4364:4387   */\n  div\n    /* \"#utility.yul\":4354:4387   */\n  swap1\n  pop\n    /* \"#utility.yul\":4300:4393   */\n  swap2\n  swap1\n  pop\n  jump\t// out\n    /* \"#utility.yul\":4399:4506   */\ntag_30:\n    /* \"#utility.yul\":4443:4451   */\n  0x00\n    /* \"#utility.yul\":4493:4498   */\n  dup3\n    /* \"#utility.yul\":4487:4491   */\n  dup3\n    /* \"#utility.yul\":4483:4499   */\n  shl\n    /* \"#utility.yul\":4462:4499   */\n  swap1\n  pop\n    /* \"#utility.yul\":4399:4506   */\n  swap3\n  swap2\n  pop\n  pop\n  jump\t// out\n    /* \"#utility.yul\":4512:4905   */\ntag_31:\n    /* \"#utility.yul\":4581:4587   */\n  0x00\n    /* \"#utility.yul\":4631:4632   */\n  0x08\n    /* \"#utility.yul\":4619:4629   */\n  dup4\n    /* \"#utility.yul\":4615:4633   */\n  mul\n    /* \"#utility.yul\":4654:4751   */\n  tag_96\n    /* \"#utility.yul\":4684:4750   */\n  0xffffffffffffffffffffffffffffffffffffffffffffffffffffffffffffffff\n    /* \"#utility.yul\":4673:4682   */\n  dup3\n    /* \"#utility.yul\":4654:4751   */\n  tag_30\n  jump\t// in\ntag_96:\n    /* \"#utility.yul\":4772:4811   */\n  tag_97\n    /* \"#utility.yul\":4802:4810   */\n  dup7\n    /* \"#utility.yul\":4791:4800   */\n  dup4\n    /* \"#utility.yul\":4772:4811   */\n  tag_30\n  jump\t// in\ntag_97:\n    /* \"#utility.yul\":4760:4811   */\n  swap6\n  pop\n    /* \"#utility.yul\":4844:4848   */\n  dup1\n    /* \"#utility.yul\":4840:4849   */\n  not\n    /* \"#utility.yul\":4833:4838   */\n  dup5\n    /* \"#utility.yul\":4829:4850   */\n  and\n    /* \"#utility.yul\":4820:4850   */\n  swap4\n  pop\n    /* \"#utility.yul\":4893:4897   */\n  dup1\n    /* \"#utility.yul\":4883:4891   */\n  dup7\n    /* \"#utility.yul\":4879:4898   */\n  and\n    /* \"#utility.yul\":4872:4877   */\n  dup5\n    /* \"#utility.yul\":4869:4899   */\n  or\n    /* \"#utility.yul\":4859:4899   */\n  swap3\n  pop\n    /* \"#utility.yul\":4588:4905   */\n  pop\n  pop\n    /* \"#utility.yul\":4512:4905   */\n  swap4\n  swap3\n  pop\n  pop\n  pop\n  jump\t// out\n    /* \"#utility.yul\":4911:4988   */\ntag_32:\n    /* \"#utility.yul\":4948:4955   */\n  0x00\n    /* \"#utility.yul\":4977:4982   */\n  dup2\n    /* \"#utility.yul\":4966:4982   */\n  swap1\n  pop\n    /* \"#utility.yul\":4911:4988   */\n  swap2\n  swap1\n  pop\n  jump\t// out\n    /* \"#utility.yul\":4994:5054   */\ntag_33:\n    /* \"#utility.yul\":5022:5025   */\n  0x00\n    /* \"#utility.yul\":5043:5048   */\n  dup2\n    /* \"#utility.yul\":5036:5048   */\n  swap1\n  pop\n    /* \"#utility.yul\":4994:5054   */\n  swap2\n  swap1\n  pop\n  jump\t// out\n    /* \"#utility.yul\":5060:5202   */\ntag_34:\n    /* \"#utility.yul\":5110:5119   */\n  0x00\n    /* \"#utility.yul\":5143:5196   */\n  tag_101\n    /* \"#utility.yul\":5161:5195   */\n  tag_102\n    /* \"#utility.yul\":5170:5194   */\n  tag_103\n    /* \"#utility.yul\":5188:5193   */\n  dup5\n    /* \"#utility.yul\":5170:5194   */\n  tag_32\n  jump\t// in\ntag_103:\n    /* \"#utility.yul\":5161:5195   */\n  tag_33\n  jump\t// in\ntag_102:\n    /* \"#utility.yul\":5143:5196   */\n  tag_32\n  jump\t// in\ntag_101:\n    /* \"#utility.yul\":5130:5196   */\n  swap1\n  pop\n    /* \"#utility.yul\":5060:5202   */\n  swap2\n  swap1\n  pop\n  jump\t// out\n    /* \"#utility.yul\":5208:5283   */\ntag_35:\n    /* \"#utility.yul\":5251:5254   */\n  0x00\n    /* \"#utility.yul\":5272:5277   */\n  dup2\n    /* \"#utility.yul\":5265:5277   */\n  swap1\n  pop\n    /* \"#utility.yul\":5208:5283   */\n  swap2\n  swap1\n  pop\n  jump\t// out\n    /* \"#utility.yul\":5289:5558   */\ntag_36:\n    /* \"#utility.yul\":5399:5438   */\n  tag_106\n    /* \"#utility.yul\":5430:5437   */\n  dup4\n    /* \"#utility.yul\":5399:5438   */\n  tag_34\n  jump\t// in\ntag_106:\n    /* \"#utility.yul\":5460:5551   */\n  tag_107\n    /* \"#utility.yul\":5509:5550   */\n  tag_108\n    /* \"#utility.yul\":5533:5549   */\n  dup3\n    /* \"#utility.yul\":5509:5550   */\n  tag_35\n  jump\t// in\ntag_108:\n    /* \"#utility.yul\":5501:5507   */\n  dup5\n    /* \"#utility.yul\":5494:5498   */\n  dup5\n    /* \"#utility.yul\":5488:5499   */\n  sload\n    /* \"#utility.yul\":5460:5551   */\n  tag_31\n  jump\t// in\ntag_107:\n    /* \"#utility.yul\":5454:5458   */\n  dup3\n    /* \"#utility.yul\":5447:5552   */\n  sstore\n    /* \"#utility.yul\":5365:5558   */\n  pop\n    /* \"#utility.yul\":5289:5558   */\n  pop\n  pop\n  pop\n  jump\t// out\n    /* \"#utility.yul\":5564:5637   */\ntag_37:\n    /* \"#utility.yul\":5609:5612   */\n  0x00\n    /* \"#utility.yul\":5564:5637   */\n  swap1\n  jump\t// out\n    /* \"#utility.yul\":5643:5832   */\ntag_38:\n    /* \"#utility.yul\":5720:5752   */\n  tag_111\n  tag_37\n  jump\t// in\ntag_111:\n    /* \"#utility.yul\":5761:5826   */\n  tag_112\n    /* \"#utility.yul\":5819:5825   */\n  dup2\n    /* \"#utility.yul\":5811:5817   */\n  dup5\n    /* \"#utility.yul\":5805:5809   */\n  dup5\n    /* \"#utility.yul\":5761:5826   */\n  tag_36\n  jump\t// in\ntag_112:\n    /* \"#utility.yul\":5696:5832   */\n  pop\n    /* \"#utility.yul\":5643:5832   */\n  pop\n  pop\n  jump\t// out\n    /* \"#utility.yul\":5838:6024   */\ntag_39:\n    /* \"#utility.yul\":5898:6018   */\ntag_114:\n    /* \"#utility.yul\":5915:5918   */\n  dup2\n    /* \"#utility.yul\":5908:5913   */\n  dup2\n    /* \"#utility.yul\":5905:5919   */\n  lt\n    /* \"#utility.yul\":5898:6018   */\n  iszero\n  tag_116\n  jumpi\n    /* \"#utility.yul\":5969:6008   */\n  tag_117\n    /* \"#utility.yul\":6006:6007   */\n  0x00\n    /* \"#utility.yul\":5999:6004   */\n  dup3\n    /* \"#utility.yul\":5969:6008   */\n  tag_38\n  jump\t// in\ntag_117:\n    /* \"#utility.yul\":5942:5943   */\n  0x01\n    /* \"#utility.yul\":5935:5940   */\n  dup2\n    /* \"#utility.yul\":5931:5944   */\n  add\n    /* \"#utility.yul\":5922:5944   */\n  swap1\n  pop\n    /* \"#utility.yul\":5898:6018   */\n  jump(tag_114)\ntag_116:\n    /* \"#utility.yul\":5838:6024   */\n  pop\n  pop\n  jump\t// out\n    /* \"#utility.yul\":6030:6573   */\ntag_40:\n    /* \"#utility.yul\":6131:6133   */\n  0x1f\n    /* \"#utility.yul\":6126:6129   */\n  dup3\n    /* \"#utility.yul\":6123:6134   */\n  gt\n    /* \"#utility.yul\":6120:6566   */\n  iszero\n  tag_119\n  jumpi\n    /* \"#utility.yul\":6165:6203   */\n  tag_120\n    /* \"#utility.yul\":6197:6202   */\n  dup2\n    /* \"#utility.yul\":6165:6203   */\n  tag_28\n  jump\t// in\ntag_120:\n    /* \"#utility.yul\":6249:6278   */\n  tag_121\n    /* \"#utility.yul\":6267:6277   */\n  dup5\n    /* \"#utility.yul\":6249:6278   */\n  tag_29\n  jump\t// in\ntag_121:\n    /* \"#utility.yul\":6239:6247   */\n  dup2\n    /* \"#utility.yul\":6235:6279   */\n  add\n    /* \"#utility.yul\":6432:6434   */\n  0x20\n    /* \"#utility.yul\":6420:6430   */\n  dup6\n    /* \"#utility.yul\":6417:6435   */\n  lt\n    /* \"#utility.yul\":6414:6463   */\n  iszero\n  tag_122\n  jumpi\n    /* \"#utility.yul\":6453:6461   */\n  dup2\n    /* \"#utility.yul\":6438:6461   */\n  swap1\n  pop\n    /* \"#utility.yul\":6414:6463   */\ntag_122:\n    /* \"#utility.yul\":6476:6556   */\n  tag_123\n    /* \"#utility.yul\":6532:6554   */\n  tag_124\n    /* \"#utility.yul\":6550:6553   */\n  dup6\n    /* \"#utility.yul\":6532:6554   */\n  tag_29\n  jump\t// in\ntag_124:\n    /* \"#utility.yul\":6522:6530   */\n  dup4\n    /* \"#utility.yul\":6518:6555   */\n  add\n    /* \"#utility.yul\":6505:6516   */\n  dup3\n    /* \"#utility.yul\":6476:6556   */\n  tag_39\n  jump\t// in\ntag_123:\n    /* \"#utility.yul\":6135:6566   */\n  pop\n  pop\n    /* \"#utility.yul\":6120:6566   */\ntag_119:\n    /* \"#utility.yul\":6030:6573   */\n  pop\n  pop\n  pop\n  jump\t// out\n    /* \"#utility.yul\":6579:6696   */\ntag_41:\n    /* \"#utility.yul\":6633:6641   */\n  0x00\n    /* \"#utility.yul\":6683:6688   */\n  dup3\n    /* \"#utility.yul\":6677:6681   */\n  dup3\n    /* \"#utility.yul\":6673:6689   */\n  shr\n    /* \"#utility.yul\":6652:6689   */\n  swap1\n  pop\n    /* \"#utility.yul\":6579:6696   */\n  swap3\n  swap2\n  pop\n  pop\n  jump\t// out\n    /* \"#utility.yul\":6702:6871   */\ntag_42:\n    /* \"#utility.yul\":6746:6752   */\n  0x00\n    /* \"#utility.yul\":6779:6830   */\n  tag_127\n    /* \"#utility.yul\":6827:6828   */\n  0x00\n    /* \"#utility.yul\":6823:6829   */\n  not\n    /* \"#utility.yul\":6815:6820   */\n  dup5\n    /* \"#utility.yul\":6812:6813   */\n  0x08\n    /* \"#utility.yul\":6808:6821   */\n  mul\n    /* \"#utility.yul\":6779:6830   */\n  tag_41\n  jump\t// in\ntag_127:\n    /* \"#utility.yul\":6775:6831   */\n  not\n    /* \"#utility.yul\":6860:6864   */\n  dup1\n    /* \"#utility.yul\":6854:6858   */\n  dup4\n    /* \"#utility.yul\":6850:6865   */\n  and\n    /* \"#utility.yul\":6840:6865   */\n  swap2\n  pop\n    /* \"#utility.yul\":6753:6871   */\n  pop\n    /* \"#utility.yul\":6702:6871   */\n  swap3\n  swap2\n  pop\n  pop\n  jump\t// out\n    /* \"#utility.yul\":6876:7171   */\ntag_43:\n    /* \"#utility.yul\":6952:6956   */\n  0x00\n    /* \"#utility.yul\":7098:7127   */\n  tag_129\n    /* \"#utility.yul\":7123:7126   */\n  dup4\n    /* \"#utility.yul\":7117:7121   */\n  dup4\n    /* \"#utility.yul\":7098:7127   */\n  tag_42\n  jump\t// in\ntag_129:\n    /* \"#utility.yul\":7090:7127   */\n  swap2\n  pop\n    /* \"#utility.yul\":7160:7163   */\n  dup3\n    /* \"#utility.yul\":7157:7158   */\n  0x02\n    /* \"#utility.yul\":7153:7164   */\n  mul\n    /* \"#utility.yul\":7147:7151   */\n  dup3\n    /* \"#utility.yul\":7144:7165   */\n  or\n    /* \"#utility.yul\":7136:7165   */\n  swap1\n  pop\n    /* \"#utility.yul\":6876:7171   */\n  swap3\n  swap2\n  pop\n  pop\n  jump\t// out\n    /* \"#utility.yul\":7176:8571   */\ntag_8:\n    /* \"#utility.yul\":7293:7330   */\n  tag_131\n    /* \"#utility.yul\":7326:7329   */\n  dup3\n    /* \"#utility.yul\":7293:7330   */\n  tag_25\n  jump\t// in\ntag_131:\n    /* \"#utility.yul\":7395:7413   */\n  0xffffffffffffffff\n    /* \"#utility.yul\":7387:7393   */\n  dup2\n    /* \"#utility.yul\":7384:7414   */\n  gt\n    /* \"#utility.yul\":7381:7437   */\n  iszero\n  tag_132\n  jumpi\n    /* \"#utility.yul\":7417:7435   */\n  tag_133\n  tag_18\n  jump\t// in\ntag_133:\n    /* \"#utility.yul\":7381:7437   */\ntag_132:\n    /* \"#utility.yul\":7461:7499   */\n  tag_134\n    /* \"#utility.yul\":7493:7497   */\n  dup3\n    /* \"#utility.yul\":7487:7498   */\n  sload\n    /* \"#utility.yul\":7461:7499   */\n  tag_27\n  jump\t// in\ntag_134:\n    /* \"#utility.yul\":7546:7613   */\n  tag_135\n    /* \"#utility.yul\":7606:7612   */\n  dup3\n    /* \"#utility.yul\":7598:7604   */\n  dup3\n    /* \"#utility.yul\":7592:7596   */\n  dup6\n    /* \"#utility.yul\":7546:7613   */\n  tag_40\n  jump\t// in\ntag_135:\n    /* \"#utility.yul\":7640:7641   */\n  0x00\n    /* \"#utility.yul\":7664:7668   */\n  0x20\n    /* \"#utility.yul\":7651:7668   */\n  swap1\n  pop\n    /* \"#utility.yul\":7696:7698   */\n  0x1f\n    /* \"#utility.yul\":7688:7694   */\n  dup4\n    /* \"#utility.yul\":7685:7699   */\n  gt\n    /* \"#utility.yul\":7713:7714   */\n  0x01\n    /* \"#utility.yul\":7708:8326   */\n  dup2\n  eq\n  tag_137\n  jumpi\n    /* \"#utility.yul\":8370:8371   */\n  0x00\n    /* \"#utility.yul\":8387:8393   */\n  dup5\n    /* \"#utility.yul\":8384:8461   */\n  iszero\n  tag_138\n  jumpi\n    /* \"#utility.yul\":8436:8445   */\n  dup3\n    /* \"#utility.yul\":8431:8434   */\n  dup8\n    /* \"#utility.yul\":8427:8446   */\n  add\n    /* \"#utility.yul\":8421:8447   */\n  mload\n    /* \"#utility.yul\":8412:8447   */\n  swap1\n  pop\n    /* \"#utility.yul\":8384:8461   */\ntag_138:\n    /* \"#utility.yul\":8487:8554   */\n  tag_139\n    /* \"#utility.yul\":8547:8553   */\n  dup6\n    /* \"#utility.yul\":8540:8545   */\n  dup3\n    /* \"#utility.yul\":8487:8554   */\n  tag_43\n  jump\t// in\ntag_139:\n    /* \"#utility.yul\":8481:8485   */\n  dup7\n    /* \"#utility.yul\":8474:8555   */\n  sstore\n    /* \"#utility.yul\":8343:8565   */\n  pop\n    /* \"#utility.yul\":7678:8565   */\n  jump(tag_136)\n    /* \"#utility.yul\":7708:8326   */\ntag_137:\n    /* \"#utility.yul\":7760:7764   */\n  0x1f\n    /* \"#utility.yul\":7756:7765   */\n  not\n    /* \"#utility.yul\":7748:7754   */\n  dup5\n    /* \"#utility.yul\":7744:7766   */\n  and\n    /* \"#utility.yul\":7794:7831   */\n  tag_140\n    /* \"#utility.yul\":7826:7830   */\n  dup7\n    /* \"#utility.yul\":7794:7831   */\n  tag_28\n  jump\t// in\ntag_140:\n    /* \"#utility.yul\":7853:7854   */\n  0x00\n    /* \"#utility.yul\":7867:8075   */\ntag_141:\n    /* \"#utility.yul\":7881:7888   */\n  dup3\n    /* \"#utility.yul\":7878:7879   */\n  dup2\n    /* \"#utility.yul\":7875:7889   */\n  lt\n    /* \"#utility.yul\":7867:8075   */\n  iszero\n  tag_143\n  jumpi\n    /* \"#utility.yul\":7960:7969   */\n  dup5\n    /* \"#utility.yul\":7955:7958   */\n  dup10\n    /* \"#utility.yul\":7951:7970   */\n  add\n    /* \"#utility.yul\":7945:7971   */\n  mload\n    /* \"#utility.yul\":7937:7943   */\n  dup3\n    /* \"#utility.yul\":7930:7972   */\n  sstore\n    /* \"#utility.yul\":8011:8012   */\n  0x01\n    /* \"#utility.yul\":8003:8009   */\n  dup3\n    /* \"#utility.yul\":7999:8013   */\n  add\n    /* \"#utility.yul\":7989:8013   */\n  swap2\n  pop\n    /* \"#utility.yul\":8058:8060   */\n  0x20\n    /* \"#utility.yul\":8047:8056   */\n  dup6\n    /* \"#utility.yul\":8043:8061   */\n  add\n    /* \"#utility.yul\":8030:8061   */\n  swap5\n  pop\n    /* \"#utility.yul\":7904:7908   */\n  0x20\n    /* \"#utility.yul\":7901:7902   */\n  dup2\n    /* \"#utility.yul\":7897:7909   */\n  add\n    /* \"#utility.yul\":7892:7909   */\n  swap1\n  pop\n    /* \"#utility.yul\":7867:8075   */\n  jump(tag_141)\ntag_143:\n    /* \"#utility.yul\":8103:8109   */\n  dup7\n    /* \"#utility.yul\":8094:8101   */\n  dup4\n    /* \"#utility.yul\":8091:8110   */\n  lt\n    /* \"#utility.yul\":8088:8267   */\n  iszero\n  tag_144\n  jumpi\n    /* \"#utility.yul\":8161:8170   */\n  dup5\n    /* \"#utility.yul\":8156:8159   */\n  dup10\n    /* \"#utility.yul\":8152:8171   */\n  add\n    /* \"#utility.yul\":8146:8172   */\n  mload\n    /* \"#utility.yul\":8204:8252   */\n  tag_145\n    /* \"#utility.yul\":8246:8250   */\n  0x1f\n    /* \"#utility.yul\":8238:8244   */\n  dup10\n    /* \"#utility.yul\":8234:8251   */\n  and\n    /* \"#utility.yul\":8223:8232   */\n  dup3\n    /* \"#utility.yul\":8204:8252   */\n  tag_42\n  jump\t// in\ntag_145:\n    /* \"#utility.yul\":8196:8202   */\n  dup4\n    /* \"#utility.yul\":8189:8253   */\n  sstore\n    /* \"#utility.yul\":8111:8267   */\n  pop\n    /* \"#utility.yul\":8088:8267   */\ntag_144:\n    /* \"#utility.yul\":8313:8314   */\n  0x01\n    /* \"#utility.yul\":8309:8310   */\n  0x02\n    /* \"#utility.yul\":8301:8307   */\n  dup9\n    /* \"#utility.yul\":8297:8311   */\n  mul\n    /* \"#utility.yul\":8293:8315   */\n  add\n    /* \"#utility.yul\":8287:8291   */\n  dup9\n    /* \"#utility.yul\":8280:8316   */\n  sstore\n    /* \"#utility.yul\":7715:8326   */\n  pop\n  pop\n  pop\n    /* \"#utility.yul\":7678:8565   */\ntag_136:\n  pop\n    /* \"#utility.yul\":7268:8571   */\n  pop\n  pop\n  pop\n    /* \"#utility.yul\":7176:8571   */\n  pop\n  pop\n  jump\t// out\n    /* \"HomeWork9.sol\":1570:2105  contract MusicAsset is AbstractAsset {... */\ntag_11:\n  dataSize(sub_0)\n  dup1\n  dataOffset(sub_0)\n  0x00\n  codecopy\n  0x00\n  return\nstop\n\nsub_0: assembly {\n        /* \"HomeWork9.sol\":1570:2105  contract MusicAsset is AbstractAsset {... */\n      mstore(0x40, 0x80)\n      callvalue\n      dup1\n      iszero\n      tag_1\n      jumpi\n      0x00\n      dup1\n      revert\n    tag_1:\n      pop\n      jumpi(tag_2, lt(calldatasize, 0x04))\n      shr(0xe0, calldataload(0x00))\n      dup1\n      0xedf5a5be\n      eq\n      tag_3\n      jumpi\n      dup1\n      0xfbbf93a0\n      eq\n      tag_4\n      jumpi\n    tag_2:\n      0x00\n      dup1\n      revert\n        /* \"HomeWork9.sol\":1945:2102  function transferOwnership(address newOwner, string memory newNameSingle) public override {... */\n    tag_3:\n      tag_5\n      0x04\n      dup1\n      calldatasize\n      sub\n      dup2\n      add\n      swap1\n      tag_6\n      swap2\n      swap1\n      tag_7\n      jump\t// in\n    tag_6:\n      tag_8\n      jump\t// in\n    tag_5:\n      stop\n        /* \"HomeWork9.sol\":1787:1937  function getDetails() virtual override external view returns (string memory, string memory, address) {... */\n    tag_4:\n      tag_9\n      tag_10\n      jump\t// in\n    tag_9:\n      mload(0x40)\n      tag_11\n      swap4\n      swap3\n      swap2\n      swap1\n      tag_12\n      jump\t// in\n    tag_11:\n      mload(0x40)\n      dup1\n      swap2\n      sub\n      swap1\n      return\n        /* \"HomeWork9.sol\":1945:2102  function transferOwnership(address newOwner, string memory newNameSingle) public override {... */\n    tag_8:\n        /* \"HomeWork9.sol\":2046:2094  super.transferOwnership(newOwner, newNameSingle) */\n      tag_14\n        /* \"HomeWork9.sol\":2070:2078  newOwner */\n      dup3\n        /* \"HomeWork9.sol\":2080:2093  newNameSingle */\n      dup3\n        /* \"HomeWork9.sol\":2046:2069  super.transferOwnership */\n      tag_15\n        /* \"HomeWork9.sol\":2046:2094  super.transferOwnership(newOwner, newNameSingle) */\n      jump\t// in\n    tag_14:\n        /* \"HomeWork9.sol\":1945:2102  function transferOwnership(address newOwner, string memory newNameSingle) public override {... */\n      pop\n      pop\n      jump\t// out\n        /* \"HomeWork9.sol\":1787:1937  function getDetails() virtual override external view returns (string memory, string memory, address) {... */\n    tag_10:\n        /* \"HomeWork9.sol\":1849:1862  string memory */\n      0x60\n        /* \"HomeWork9.sol\":1864:1877  string memory */\n      dup1\n        /* \"HomeWork9.sol\":1879:1886  address */\n      0x00\n        /* \"HomeWork9.sol\":1907:1911  name */\n      dup1\n        /* \"HomeWork9.sol\":1913:1921  nameSong */\n      0x03\n        /* \"HomeWork9.sol\":1923:1928  owner */\n      0x01\n      0x00\n      swap1\n      sload\n      swap1\n      0x0100\n      exp\n      swap1\n      div\n      0xffffffffffffffffffffffffffffffffffffffff\n      and\n        /* \"HomeWork9.sol\":1899:1929  return (name, nameSong, owner) */\n      dup3\n      dup1\n      sload\n      tag_17\n      swap1\n      tag_18\n      jump\t// in\n    tag_17:\n      dup1\n      0x1f\n      add\n      0x20\n      dup1\n      swap2\n      div\n      mul\n      0x20\n      add\n      mload(0x40)\n      swap1\n      dup2\n      add\n      0x40\n      mstore\n      dup1\n      swap3\n      swap2\n      swap1\n      dup2\n      dup2\n      mstore\n      0x20\n      add\n      dup3\n      dup1\n      sload\n      tag_19\n      swap1\n      tag_18\n      jump\t// in\n    tag_19:\n      dup1\n      iszero\n      tag_20\n      jumpi\n      dup1\n      0x1f\n      lt\n      tag_21\n      jumpi\n      0x0100\n      dup1\n      dup4\n      sload\n      div\n      mul\n      dup4\n      mstore\n      swap2\n      0x20\n      add\n      swap2\n      jump(tag_20)\n    tag_21:\n      dup3\n      add\n      swap2\n      swap1\n      0x00\n      mstore\n      keccak256(0x00, 0x20)\n      swap1\n    tag_22:\n      dup2\n      sload\n      dup2\n      mstore\n      swap1\n      0x01\n      add\n      swap1\n      0x20\n      add\n      dup1\n      dup4\n      gt\n      tag_22\n      jumpi\n      dup3\n      swap1\n      sub\n      0x1f\n      and\n      dup3\n      add\n      swap2\n    tag_20:\n      pop\n      pop\n      pop\n      pop\n      pop\n      swap3\n      pop\n      dup2\n      dup1\n      sload\n      tag_23\n      swap1\n      tag_18\n      jump\t// in\n    tag_23:\n      dup1\n      0x1f\n      add\n      0x20\n      dup1\n      swap2\n      div\n      mul\n      0x20\n      add\n      mload(0x40)\n      swap1\n      dup2\n      add\n      0x40\n      mstore\n      dup1\n      swap3\n      swap2\n      swap1\n      dup2\n      dup2\n      mstore\n      0x20\n      add\n      dup3\n      dup1\n      sload\n      tag_24\n      swap1\n      tag_18\n      jump\t// in\n    tag_24:\n      dup1\n      iszero\n      tag_25\n      jumpi\n      dup1\n      0x1f\n      lt\n      tag_26\n      jumpi\n      0x0100\n      dup1\n      dup4\n      sload\n      div\n      mul\n      dup4\n      mstore\n      swap2\n      0x20\n      add\n      swap2\n      jump(tag_25)\n    tag_26:\n      dup3\n      add\n      swap2\n      swap1\n      0x00\n      mstore\n      keccak256(0x00, 0x20)\n      swap1\n    tag_27:\n      dup2\n      sload\n      dup2\n      mstore\n      swap1\n      0x01\n      add\n      swap1\n      0x20\n      add\n      dup1\n      dup4\n      gt\n      tag_27\n      jumpi\n      dup3\n      swap1\n      sub\n      0x1f\n      and\n      dup3\n      add\n      swap2\n    tag_25:\n      pop\n      pop\n      pop\n      pop\n      pop\n      swap2\n      pop\n      swap3\n      pop\n      swap3\n      pop\n      swap3\n      pop\n        /* \"HomeWork9.sol\":1787:1937  function getDetails() virtual override external view returns (string memory, string memory, address) {... */\n      swap1\n      swap2\n      swap3\n      jump\t// out\n        /* \"HomeWork9.sol\":661:943  function transferOwnership(address newOwner, string memory newName) virtual override public {... */\n    tag_15:\n        /* \"HomeWork9.sol\":781:791  msg.sender */\n      caller\n        /* \"HomeWork9.sol\":772:791  owner == msg.sender */\n      0xffffffffffffffffffffffffffffffffffffffff\n      and\n        /* \"HomeWork9.sol\":772:777  owner */\n      0x01\n      0x00\n      swap1\n      sload\n      swap1\n      0x0100\n      exp\n      swap1\n      div\n      0xffffffffffffffffffffffffffffffffffffffff\n      and\n        /* \"HomeWork9.sol\":772:791  owner == msg.sender */\n      0xffffffffffffffffffffffffffffffffffffffff\n      and\n      eq\n        /* \"HomeWork9.sol\":764:822  require(owner == msg.sender, \"Only owner can use option!\") */\n      tag_29\n      jumpi\n      mload(0x40)\n      0x08c379a000000000000000000000000000000000000000000000000000000000\n      dup2\n      mstore\n      0x04\n      add\n      tag_30\n      swap1\n      tag_31\n      jump\t// in\n    tag_30:\n      mload(0x40)\n      dup1\n      swap2\n      sub\n      swap1\n      revert\n    tag_29:\n        /* \"HomeWork9.sol\":861:862  0 */\n      0x00\n        /* \"HomeWork9.sol\":841:863  newOwner != address(0) */\n      0xffffffffffffffffffffffffffffffffffffffff\n      and\n        /* \"HomeWork9.sol\":841:849  newOwner */\n      dup3\n        /* \"HomeWork9.sol\":841:863  newOwner != address(0) */\n      0xffffffffffffffffffffffffffffffffffffffff\n      and\n      sub\n        /* \"HomeWork9.sol\":833:883  require(newOwner != address(0), \"Invalid address\") */\n      tag_32\n      jumpi\n      mload(0x40)\n      0x08c379a000000000000000000000000000000000000000000000000000000000\n      dup2\n      mstore\n      0x04\n      add\n      tag_33\n      swap1\n      tag_34\n      jump\t// in\n    tag_33:\n      mload(0x40)\n      dup1\n      swap2\n      sub\n      swap1\n      revert\n    tag_32:\n        /* \"HomeWork9.sol\":902:910  newOwner */\n      dup2\n        /* \"HomeWork9.sol\":894:899  owner */\n      0x01\n      0x00\n        /* \"HomeWork9.sol\":894:910  owner = newOwner */\n      0x0100\n      exp\n      dup2\n      sload\n      dup2\n      0xffffffffffffffffffffffffffffffffffffffff\n      mul\n      not\n      and\n      swap1\n      dup4\n      0xffffffffffffffffffffffffffffffffffffffff\n      and\n      mul\n      or\n      swap1\n      sstore\n      pop\n        /* \"HomeWork9.sol\":928:935  newName */\n      dup1\n        /* \"HomeWork9.sol\":921:925  name */\n      0x00\n        /* \"HomeWork9.sol\":921:935  name = newName */\n      swap1\n      dup2\n      tag_35\n      swap2\n      swap1\n      tag_36\n      jump\t// in\n    tag_35:\n      pop\n        /* \"HomeWork9.sol\":661:943  function transferOwnership(address newOwner, string memory newName) virtual override public {... */\n      pop\n      pop\n      jump\t// out\n        /* \"#utility.yul\":7:82   */\n    tag_37:\n        /* \"#utility.yul\":40:46   */\n      0x00\n        /* \"#utility.yul\":73:75   */\n      0x40\n        /* \"#utility.yul\":67:76   */\n      mload\n        /* \"#utility.yul\":57:76   */\n      swap1\n      pop\n        /* \"#utility.yul\":7:82   */\n      swap1\n      jump\t// out\n        /* \"#utility.yul\":88:205   */\n    tag_38:\n        /* \"#utility.yul\":197:198   */\n      0x00\n        /* \"#utility.yul\":194:195   */\n      dup1\n        /* \"#utility.yul\":187:199   */\n      revert\n        /* \"#utility.yul\":211:328   */\n    tag_39:\n        /* \"#utility.yul\":320:321   */\n      0x00\n        /* \"#utility.yul\":317:318   */\n      dup1\n        /* \"#utility.yul\":310:322   */\n      revert\n        /* \"#utility.yul\":334:460   */\n    tag_40:\n        /* \"#utility.yul\":371:378   */\n      0x00\n        /* \"#utility.yul\":411:453   */\n      0xffffffffffffffffffffffffffffffffffffffff\n        /* \"#utility.yul\":404:409   */\n      dup3\n        /* \"#utility.yul\":400:454   */\n      and\n        /* \"#utility.yul\":389:454   */\n      swap1\n      pop\n        /* \"#utility.yul\":334:460   */\n      swap2\n      swap1\n      pop\n      jump\t// out\n        /* \"#utility.yul\":466:562   */\n    tag_41:\n        /* \"#utility.yul\":503:510   */\n      0x00\n        /* \"#utility.yul\":532:556   */\n      tag_86\n        /* \"#utility.yul\":550:555   */\n      dup3\n        /* \"#utility.yul\":532:556   */\n      tag_40\n      jump\t// in\n    tag_86:\n        /* \"#utility.yul\":521:556   */\n      swap1\n      pop\n        /* \"#utility.yul\":466:562   */\n      swap2\n      swap1\n      pop\n      jump\t// out\n        /* \"#utility.yul\":568:690   */\n    tag_42:\n        /* \"#utility.yul\":641:665   */\n      tag_88\n        /* \"#utility.yul\":659:664   */\n      dup2\n        /* \"#utility.yul\":641:665   */\n      tag_41\n      jump\t// in\n    tag_88:\n        /* \"#utility.yul\":634:639   */\n      dup2\n        /* \"#utility.yul\":631:666   */\n      eq\n        /* \"#utility.yul\":621:684   */\n      tag_89\n      jumpi\n        /* \"#utility.yul\":680:681   */\n      0x00\n        /* \"#utility.yul\":677:678   */\n      dup1\n        /* \"#utility.yul\":670:682   */\n      revert\n        /* \"#utility.yul\":621:684   */\n    tag_89:\n        /* \"#utility.yul\":568:690   */\n      pop\n      jump\t// out\n        /* \"#utility.yul\":696:835   */\n    tag_43:\n        /* \"#utility.yul\":742:747   */\n      0x00\n        /* \"#utility.yul\":780:786   */\n      dup2\n        /* \"#utility.yul\":767:787   */\n      calldataload\n        /* \"#utility.yul\":758:787   */\n      swap1\n      pop\n        /* \"#utility.yul\":796:829   */\n      tag_91\n        /* \"#utility.yul\":823:828   */\n      dup2\n        /* \"#utility.yul\":796:829   */\n      tag_42\n      jump\t// in\n    tag_91:\n        /* \"#utility.yul\":696:835   */\n      swap3\n      swap2\n      pop\n      pop\n      jump\t// out\n        /* \"#utility.yul\":841:958   */\n    tag_44:\n        /* \"#utility.yul\":950:951   */\n      0x00\n        /* \"#utility.yul\":947:948   */\n      dup1\n        /* \"#utility.yul\":940:952   */\n      revert\n        /* \"#utility.yul\":964:1081   */\n    tag_45:\n        /* \"#utility.yul\":1073:1074   */\n      0x00\n        /* \"#utility.yul\":1070:1071   */\n      dup1\n        /* \"#utility.yul\":1063:1075   */\n      revert\n        /* \"#utility.yul\":1087:1189   */\n    tag_46:\n        /* \"#utility.yul\":1128:1134   */\n      0x00\n        /* \"#utility.yul\":1179:1181   */\n      0x1f\n        /* \"#utility.yul\":1175:1182   */\n      not\n        /* \"#utility.yul\":1170:1172   */\n      0x1f\n        /* \"#utility.yul\":1163:1168   */\n      dup4\n        /* \"#utility.yul\":1159:1173   */\n      add\n        /* \"#utility.yul\":1155:1183   */\n      and\n        /* \"#utility.yul\":1145:1183   */\n      swap1\n      pop\n        /* \"#utility.yul\":1087:1189   */\n      swap2\n      swap1\n      pop\n      jump\t// out\n        /* \"#utility.yul\":1195:1375   */\n    tag_47:\n        /* \"#utility.yul\":1243:1320   */\n      0x4e487b7100000000000000000000000000000000000000000000000000000000\n        /* \"#utility.yul\":1240:1241   */\n      0x00\n        /* \"#utility.yul\":1233:1321   */\n      mstore\n        /* \"#utility.yul\":1340:1344   */\n      0x41\n        /* \"#utility.yul\":1337:1338   */\n      0x04\n        /* \"#utility.yul\":1330:1345   */\n      mstore\n        /* \"#utility.yul\":1364:1368   */\n      0x24\n        /* \"#utility.yul\":1361:1362   */\n      0x00\n        /* \"#utility.yul\":1354:1369   */\n      revert\n        /* \"#utility.yul\":1381:1662   */\n    tag_48:\n        /* \"#utility.yul\":1464:1491   */\n      tag_97\n        /* \"#utility.yul\":1486:1490   */\n      dup3\n        /* \"#utility.yul\":1464:1491   */\n      tag_46\n      jump\t// in\n    tag_97:\n        /* \"#utility.yul\":1456:1462   */\n      dup2\n        /* \"#utility.yul\":1452:1492   */\n      add\n        /* \"#utility.yul\":1594:1600   */\n      dup2\n        /* \"#utility.yul\":1582:1592   */\n      dup2\n        /* \"#utility.yul\":1579:1601   */\n      lt\n        /* \"#utility.yul\":1558:1576   */\n      0xffffffffffffffff\n        /* \"#utility.yul\":1546:1556   */\n      dup3\n        /* \"#utility.yul\":1543:1577   */\n      gt\n        /* \"#utility.yul\":1540:1602   */\n      or\n        /* \"#utility.yul\":1537:1625   */\n      iszero\n      tag_98\n      jumpi\n        /* \"#utility.yul\":1605:1623   */\n      tag_99\n      tag_47\n      jump\t// in\n    tag_99:\n        /* \"#utility.yul\":1537:1625   */\n    tag_98:\n        /* \"#utility.yul\":1645:1655   */\n      dup1\n        /* \"#utility.yul\":1641:1643   */\n      0x40\n        /* \"#utility.yul\":1634:1656   */\n      mstore\n        /* \"#utility.yul\":1424:1662   */\n      pop\n        /* \"#utility.yul\":1381:1662   */\n      pop\n      pop\n      jump\t// out\n        /* \"#utility.yul\":1668:1797   */\n    tag_49:\n        /* \"#utility.yul\":1702:1708   */\n      0x00\n        /* \"#utility.yul\":1729:1749   */\n      tag_101\n      tag_37\n      jump\t// in\n    tag_101:\n        /* \"#utility.yul\":1719:1749   */\n      swap1\n      pop\n        /* \"#utility.yul\":1758:1791   */\n      tag_102\n        /* \"#utility.yul\":1786:1790   */\n      dup3\n        /* \"#utility.yul\":1778:1784   */\n      dup3\n        /* \"#utility.yul\":1758:1791   */\n      tag_48\n      jump\t// in\n    tag_102:\n        /* \"#utility.yul\":1668:1797   */\n      swap2\n      swap1\n      pop\n      jump\t// out\n        /* \"#utility.yul\":1803:2111   */\n    tag_50:\n        /* \"#utility.yul\":1865:1869   */\n      0x00\n        /* \"#utility.yul\":1955:1973   */\n      0xffffffffffffffff\n        /* \"#utility.yul\":1947:1953   */\n      dup3\n        /* \"#utility.yul\":1944:1974   */\n      gt\n        /* \"#utility.yul\":1941:1997   */\n      iszero\n      tag_104\n      jumpi\n        /* \"#utility.yul\":1977:1995   */\n      tag_105\n      tag_47\n      jump\t// in\n    tag_105:\n        /* \"#utility.yul\":1941:1997   */\n    tag_104:\n        /* \"#utility.yul\":2015:2044   */\n      tag_106\n        /* \"#utility.yul\":2037:2043   */\n      dup3\n        /* \"#utility.yul\":2015:2044   */\n      tag_46\n      jump\t// in\n    tag_106:\n        /* \"#utility.yul\":2007:2044   */\n      swap1\n      pop\n        /* \"#utility.yul\":2099:2103   */\n      0x20\n        /* \"#utility.yul\":2093:2097   */\n      dup2\n        /* \"#utility.yul\":2089:2104   */\n      add\n        /* \"#utility.yul\":2081:2104   */\n      swap1\n      pop\n        /* \"#utility.yul\":1803:2111   */\n      swap2\n      swap1\n      pop\n      jump\t// out\n        /* \"#utility.yul\":2117:2263   */\n    tag_51:\n        /* \"#utility.yul\":2214:2220   */\n      dup3\n        /* \"#utility.yul\":2209:2212   */\n      dup2\n        /* \"#utility.yul\":2204:2207   */\n      dup4\n        /* \"#utility.yul\":2191:2221   */\n      calldatacopy\n        /* \"#utility.yul\":2255:2256   */\n      0x00\n        /* \"#utility.yul\":2246:2252   */\n      dup4\n        /* \"#utility.yul\":2241:2244   */\n      dup4\n        /* \"#utility.yul\":2237:2253   */\n      add\n        /* \"#utility.yul\":2230:2257   */\n      mstore\n        /* \"#utility.yul\":2117:2263   */\n      pop\n      pop\n      pop\n      jump\t// out\n        /* \"#utility.yul\":2269:2694   */\n    tag_52:\n        /* \"#utility.yul\":2347:2352   */\n      0x00\n        /* \"#utility.yul\":2372:2438   */\n      tag_109\n        /* \"#utility.yul\":2388:2437   */\n      tag_110\n        /* \"#utility.yul\":2430:2436   */\n      dup5\n        /* \"#utility.yul\":2388:2437   */\n      tag_50\n      jump\t// in\n    tag_110:\n        /* \"#utility.yul\":2372:2438   */\n      tag_49\n      jump\t// in\n    tag_109:\n        /* \"#utility.yul\":2363:2438   */\n      swap1\n      pop\n        /* \"#utility.yul\":2461:2467   */\n      dup3\n        /* \"#utility.yul\":2454:2459   */\n      dup2\n        /* \"#utility.yul\":2447:2468   */\n      mstore\n        /* \"#utility.yul\":2499:2503   */\n      0x20\n        /* \"#utility.yul\":2492:2497   */\n      dup2\n        /* \"#utility.yul\":2488:2504   */\n      add\n        /* \"#utility.yul\":2537:2540   */\n      dup5\n        /* \"#utility.yul\":2528:2534   */\n      dup5\n        /* \"#utility.yul\":2523:2526   */\n      dup5\n        /* \"#utility.yul\":2519:2535   */\n      add\n        /* \"#utility.yul\":2516:2541   */\n      gt\n        /* \"#utility.yul\":2513:2625   */\n      iszero\n      tag_111\n      jumpi\n        /* \"#utility.yul\":2544:2623   */\n      tag_112\n      tag_45\n      jump\t// in\n    tag_112:\n        /* \"#utility.yul\":2513:2625   */\n    tag_111:\n        /* \"#utility.yul\":2634:2688   */\n      tag_113\n        /* \"#utility.yul\":2681:2687   */\n      dup5\n        /* \"#utility.yul\":2676:2679   */\n      dup3\n        /* \"#utility.yul\":2671:2674   */\n      dup6\n        /* \"#utility.yul\":2634:2688   */\n      tag_51\n      jump\t// in\n    tag_113:\n        /* \"#utility.yul\":2353:2694   */\n      pop\n        /* \"#utility.yul\":2269:2694   */\n      swap4\n      swap3\n      pop\n      pop\n      pop\n      jump\t// out\n        /* \"#utility.yul\":2714:3054   */\n    tag_53:\n        /* \"#utility.yul\":2770:2775   */\n      0x00\n        /* \"#utility.yul\":2819:2822   */\n      dup3\n        /* \"#utility.yul\":2812:2816   */\n      0x1f\n        /* \"#utility.yul\":2804:2810   */\n      dup4\n        /* \"#utility.yul\":2800:2817   */\n      add\n        /* \"#utility.yul\":2796:2823   */\n      slt\n        /* \"#utility.yul\":2786:2908   */\n      tag_115\n      jumpi\n        /* \"#utility.yul\":2827:2906   */\n      tag_116\n      tag_44\n      jump\t// in\n    tag_116:\n        /* \"#utility.yul\":2786:2908   */\n    tag_115:\n        /* \"#utility.yul\":2944:2950   */\n      dup2\n        /* \"#utility.yul\":2931:2951   */\n      calldataload\n        /* \"#utility.yul\":2969:3048   */\n      tag_117\n        /* \"#utility.yul\":3044:3047   */\n      dup5\n        /* \"#utility.yul\":3036:3042   */\n      dup3\n        /* \"#utility.yul\":3029:3033   */\n      0x20\n        /* \"#utility.yul\":3021:3027   */\n      dup7\n        /* \"#utility.yul\":3017:3034   */\n      add\n        /* \"#utility.yul\":2969:3048   */\n      tag_52\n      jump\t// in\n    tag_117:\n        /* \"#utility.yul\":2960:3048   */\n      swap2\n      pop\n        /* \"#utility.yul\":2776:3054   */\n      pop\n        /* \"#utility.yul\":2714:3054   */\n      swap3\n      swap2\n      pop\n      pop\n      jump\t// out\n        /* \"#utility.yul\":3060:3714   */\n    tag_7:\n        /* \"#utility.yul\":3138:3144   */\n      0x00\n        /* \"#utility.yul\":3146:3152   */\n      dup1\n        /* \"#utility.yul\":3195:3197   */\n      0x40\n        /* \"#utility.yul\":3183:3192   */\n      dup4\n        /* \"#utility.yul\":3174:3181   */\n      dup6\n        /* \"#utility.yul\":3170:3193   */\n      sub\n        /* \"#utility.yul\":3166:3198   */\n      slt\n        /* \"#utility.yul\":3163:3282   */\n      iszero\n      tag_119\n      jumpi\n        /* \"#utility.yul\":3201:3280   */\n      tag_120\n      tag_38\n      jump\t// in\n    tag_120:\n        /* \"#utility.yul\":3163:3282   */\n    tag_119:\n        /* \"#utility.yul\":3321:3322   */\n      0x00\n        /* \"#utility.yul\":3346:3399   */\n      tag_121\n        /* \"#utility.yul\":3391:3398   */\n      dup6\n        /* \"#utility.yul\":3382:3388   */\n      dup3\n        /* \"#utility.yul\":3371:3380   */\n      dup7\n        /* \"#utility.yul\":3367:3389   */\n      add\n        /* \"#utility.yul\":3346:3399   */\n      tag_43\n      jump\t// in\n    tag_121:\n        /* \"#utility.yul\":3336:3399   */\n      swap3\n      pop\n        /* \"#utility.yul\":3292:3409   */\n      pop\n        /* \"#utility.yul\":3476:3478   */\n      0x20\n        /* \"#utility.yul\":3465:3474   */\n      dup4\n        /* \"#utility.yul\":3461:3479   */\n      add\n        /* \"#utility.yul\":3448:3480   */\n      calldataload\n        /* \"#utility.yul\":3507:3525   */\n      0xffffffffffffffff\n        /* \"#utility.yul\":3499:3505   */\n      dup2\n        /* \"#utility.yul\":3496:3526   */\n      gt\n        /* \"#utility.yul\":3493:3610   */\n      iszero\n      tag_122\n      jumpi\n        /* \"#utility.yul\":3529:3608   */\n      tag_123\n      tag_39\n      jump\t// in\n    tag_123:\n        /* \"#utility.yul\":3493:3610   */\n    tag_122:\n        /* \"#utility.yul\":3634:3697   */\n      tag_124\n        /* \"#utility.yul\":3689:3696   */\n      dup6\n        /* \"#utility.yul\":3680:3686   */\n      dup3\n        /* \"#utility.yul\":3669:3678   */\n      dup7\n        /* \"#utility.yul\":3665:3687   */\n      add\n        /* \"#utility.yul\":3634:3697   */\n      tag_53\n      jump\t// in\n    tag_124:\n        /* \"#utility.yul\":3624:3697   */\n      swap2\n      pop\n        /* \"#utility.yul\":3419:3707   */\n      pop\n        /* \"#utility.yul\":3060:3714   */\n      swap3\n      pop\n      swap3\n      swap1\n      pop\n      jump\t// out\n        /* \"#utility.yul\":3720:3819   */\n    tag_54:\n        /* \"#utility.yul\":3772:3778   */\n      0x00\n        /* \"#utility.yul\":3806:3811   */\n      dup2\n        /* \"#utility.yul\":3800:3812   */\n      mload\n        /* \"#utility.yul\":3790:3812   */\n      swap1\n      pop\n        /* \"#utility.yul\":3720:3819   */\n      swap2\n      swap1\n      pop\n      jump\t// out\n        /* \"#utility.yul\":3825:3994   */\n    tag_55:\n        /* \"#utility.yul\":3909:3920   */\n      0x00\n        /* \"#utility.yul\":3943:3949   */\n      dup3\n        /* \"#utility.yul\":3938:3941   */\n      dup3\n        /* \"#utility.yul\":3931:3950   */\n      mstore\n        /* \"#utility.yul\":3983:3987   */\n      0x20\n        /* \"#utility.yul\":3978:3981   */\n      dup3\n        /* \"#utility.yul\":3974:3988   */\n      add\n        /* \"#utility.yul\":3959:3988   */\n      swap1\n      pop\n        /* \"#utility.yul\":3825:3994   */\n      swap3\n      swap2\n      pop\n      pop\n      jump\t// out\n        /* \"#utility.yul\":4000:4246   */\n    tag_56:\n        /* \"#utility.yul\":4081:4082   */\n      0x00\n        /* \"#utility.yul\":4091:4204   */\n    tag_128:\n        /* \"#utility.yul\":4105:4111   */\n      dup4\n        /* \"#utility.yul\":4102:4103   */\n      dup2\n        /* \"#utility.yul\":4099:4112   */\n      lt\n        /* \"#utility.yul\":4091:4204   */\n      iszero\n      tag_130\n      jumpi\n        /* \"#utility.yul\":4190:4191   */\n      dup1\n        /* \"#utility.yul\":4185:4188   */\n      dup3\n        /* \"#utility.yul\":4181:4192   */\n      add\n        /* \"#utility.yul\":4175:4193   */\n      mload\n        /* \"#utility.yul\":4171:4172   */\n      dup2\n        /* \"#utility.yul\":4166:4169   */\n      dup5\n        /* \"#utility.yul\":4162:4173   */\n      add\n        /* \"#utility.yul\":4155:4194   */\n      mstore\n        /* \"#utility.yul\":4127:4129   */\n      0x20\n        /* \"#utility.yul\":4124:4125   */\n      dup2\n        /* \"#utility.yul\":4120:4130   */\n      add\n        /* \"#utility.yul\":4115:4130   */\n      swap1\n      pop\n        /* \"#utility.yul\":4091:4204   */\n      jump(tag_128)\n    tag_130:\n        /* \"#utility.yul\":4238:4239   */\n      0x00\n        /* \"#utility.yul\":4229:4235   */\n      dup5\n        /* \"#utility.yul\":4224:4227   */\n      dup5\n        /* \"#utility.yul\":4220:4236   */\n      add\n        /* \"#utility.yul\":4213:4240   */\n      mstore\n        /* \"#utility.yul\":4062:4246   */\n      pop\n        /* \"#utility.yul\":4000:4246   */\n      pop\n      pop\n      pop\n      jump\t// out\n        /* \"#utility.yul\":4252:4629   */\n    tag_57:\n        /* \"#utility.yul\":4340:4343   */\n      0x00\n        /* \"#utility.yul\":4368:4407   */\n      tag_132\n        /* \"#utility.yul\":4401:4406   */\n      dup3\n        /* \"#utility.yul\":4368:4407   */\n      tag_54\n      jump\t// in\n    tag_132:\n        /* \"#utility.yul\":4423:4494   */\n      tag_133\n        /* \"#utility.yul\":4487:4493   */\n      dup2\n        /* \"#utility.yul\":4482:4485   */\n      dup6\n        /* \"#utility.yul\":4423:4494   */\n      tag_55\n      jump\t// in\n    tag_133:\n        /* \"#utility.yul\":4416:4494   */\n      swap4\n      pop\n        /* \"#utility.yul\":4503:4568   */\n      tag_134\n        /* \"#utility.yul\":4561:4567   */\n      dup2\n        /* \"#utility.yul\":4556:4559   */\n      dup6\n        /* \"#utility.yul\":4549:4553   */\n      0x20\n        /* \"#utility.yul\":4542:4547   */\n      dup7\n        /* \"#utility.yul\":4538:4554   */\n      add\n        /* \"#utility.yul\":4503:4568   */\n      tag_56\n      jump\t// in\n    tag_134:\n        /* \"#utility.yul\":4593:4622   */\n      tag_135\n        /* \"#utility.yul\":4615:4621   */\n      dup2\n        /* \"#utility.yul\":4593:4622   */\n      tag_46\n      jump\t// in\n    tag_135:\n        /* \"#utility.yul\":4588:4591   */\n      dup5\n        /* \"#utility.yul\":4584:4623   */\n      add\n        /* \"#utility.yul\":4577:4623   */\n      swap2\n      pop\n        /* \"#utility.yul\":4344:4629   */\n      pop\n        /* \"#utility.yul\":4252:4629   */\n      swap3\n      swap2\n      pop\n      pop\n      jump\t// out\n        /* \"#utility.yul\":4635:4753   */\n    tag_58:\n        /* \"#utility.yul\":4722:4746   */\n      tag_137\n        /* \"#utility.yul\":4740:4745   */\n      dup2\n        /* \"#utility.yul\":4722:4746   */\n      tag_41\n      jump\t// in\n    tag_137:\n        /* \"#utility.yul\":4717:4720   */\n      dup3\n        /* \"#utility.yul\":4710:4747   */\n      mstore\n        /* \"#utility.yul\":4635:4753   */\n      pop\n      pop\n      jump\t// out\n        /* \"#utility.yul\":4759:5383   */\n    tag_12:\n        /* \"#utility.yul\":4948:4952   */\n      0x00\n        /* \"#utility.yul\":4986:4988   */\n      0x60\n        /* \"#utility.yul\":4975:4984   */\n      dup3\n        /* \"#utility.yul\":4971:4989   */\n      add\n        /* \"#utility.yul\":4963:4989   */\n      swap1\n      pop\n        /* \"#utility.yul\":5035:5044   */\n      dup2\n        /* \"#utility.yul\":5029:5033   */\n      dup2\n        /* \"#utility.yul\":5025:5045   */\n      sub\n        /* \"#utility.yul\":5021:5022   */\n      0x00\n        /* \"#utility.yul\":5010:5019   */\n      dup4\n        /* \"#utility.yul\":5006:5023   */\n      add\n        /* \"#utility.yul\":4999:5046   */\n      mstore\n        /* \"#utility.yul\":5063:5141   */\n      tag_139\n        /* \"#utility.yul\":5136:5140   */\n      dup2\n        /* \"#utility.yul\":5127:5133   */\n      dup7\n        /* \"#utility.yul\":5063:5141   */\n      tag_57\n      jump\t// in\n    tag_139:\n        /* \"#utility.yul\":5055:5141   */\n      swap1\n      pop\n        /* \"#utility.yul\":5188:5197   */\n      dup2\n        /* \"#utility.yul\":5182:5186   */\n      dup2\n        /* \"#utility.yul\":5178:5198   */\n      sub\n        /* \"#utility.yul\":5173:5175   */\n      0x20\n        /* \"#utility.yul\":5162:5171   */\n      dup4\n        /* \"#utility.yul\":5158:5176   */\n      add\n        /* \"#utility.yul\":5151:5199   */\n      mstore\n        /* \"#utility.yul\":5216:5294   */\n      tag_140\n        /* \"#utility.yul\":5289:5293   */\n      dup2\n        /* \"#utility.yul\":5280:5286   */\n      dup6\n        /* \"#utility.yul\":5216:5294   */\n      tag_57\n      jump\t// in\n    tag_140:\n        /* \"#utility.yul\":5208:5294   */\n      swap1\n      pop\n        /* \"#utility.yul\":5304:5376   */\n      tag_141\n        /* \"#utility.yul\":5372:5374   */\n      0x40\n        /* \"#utility.yul\":5361:5370   */\n      dup4\n        /* \"#utility.yul\":5357:5375   */\n      add\n        /* \"#utility.yul\":5348:5354   */\n      dup5\n        /* \"#utility.yul\":5304:5376   */\n      tag_58\n      jump\t// in\n    tag_141:\n        /* \"#utility.yul\":4759:5383   */\n      swap5\n      swap4\n      pop\n      pop\n      pop\n      pop\n      jump\t// out\n        /* \"#utility.yul\":5389:5569   */\n    tag_59:\n        /* \"#utility.yul\":5437:5514   */\n      0x4e487b7100000000000000000000000000000000000000000000000000000000\n        /* \"#utility.yul\":5434:5435   */\n      0x00\n        /* \"#utility.yul\":5427:5515   */\n      mstore\n        /* \"#utility.yul\":5534:5538   */\n      0x22\n        /* \"#utility.yul\":5531:5532   */\n      0x04\n        /* \"#utility.yul\":5524:5539   */\n      mstore\n        /* \"#utility.yul\":5558:5562   */\n      0x24\n        /* \"#utility.yul\":5555:5556   */\n      0x00\n        /* \"#utility.yul\":5548:5563   */\n      revert\n        /* \"#utility.yul\":5575:5895   */\n    tag_18:\n        /* \"#utility.yul\":5619:5625   */\n      0x00\n        /* \"#utility.yul\":5656:5657   */\n      0x02\n        /* \"#utility.yul\":5650:5654   */\n      dup3\n        /* \"#utility.yul\":5646:5658   */\n      div\n        /* \"#utility.yul\":5636:5658   */\n      swap1\n      pop\n        /* \"#utility.yul\":5703:5704   */\n      0x01\n        /* \"#utility.yul\":5697:5701   */\n      dup3\n        /* \"#utility.yul\":5693:5705   */\n      and\n        /* \"#utility.yul\":5724:5742   */\n      dup1\n        /* \"#utility.yul\":5714:5795   */\n      tag_144\n      jumpi\n        /* \"#utility.yul\":5780:5784   */\n      0x7f\n        /* \"#utility.yul\":5772:5778   */\n      dup3\n        /* \"#utility.yul\":5768:5785   */\n      and\n        /* \"#utility.yul\":5758:5785   */\n      swap2\n      pop\n        /* \"#utility.yul\":5714:5795   */\n    tag_144:\n        /* \"#utility.yul\":5842:5844   */\n      0x20\n        /* \"#utility.yul\":5834:5840   */\n      dup3\n        /* \"#utility.yul\":5831:5845   */\n      lt\n        /* \"#utility.yul\":5811:5829   */\n      dup2\n        /* \"#utility.yul\":5808:5846   */\n      sub\n        /* \"#utility.yul\":5805:5889   */\n      tag_145\n      jumpi\n        /* \"#utility.yul\":5861:5879   */\n      tag_146\n      tag_59\n      jump\t// in\n    tag_146:\n        /* \"#utility.yul\":5805:5889   */\n    tag_145:\n        /* \"#utility.yul\":5626:5895   */\n      pop\n        /* \"#utility.yul\":5575:5895   */\n      swap2\n      swap1\n      pop\n      jump\t// out\n        /* \"#utility.yul\":5901:6077   */\n    tag_60:\n        /* \"#utility.yul\":6041:6069   */\n      0x4f6e6c79206f776e65722063616e20757365206f7074696f6e21000000000000\n        /* \"#utility.yul\":6037:6038   */\n      0x00\n        /* \"#utility.yul\":6029:6035   */\n      dup3\n        /* \"#utility.yul\":6025:6039   */\n      add\n        /* \"#utility.yul\":6018:6070   */\n      mstore\n        /* \"#utility.yul\":5901:6077   */\n      pop\n      jump\t// out\n        /* \"#utility.yul\":6083:6449   */\n    tag_61:\n        /* \"#utility.yul\":6225:6228   */\n      0x00\n        /* \"#utility.yul\":6246:6313   */\n      tag_149\n        /* \"#utility.yul\":6310:6312   */\n      0x1a\n        /* \"#utility.yul\":6305:6308   */\n      dup4\n        /* \"#utility.yul\":6246:6313   */\n      tag_55\n      jump\t// in\n    tag_149:\n        /* \"#utility.yul\":6239:6313   */\n      swap2\n      pop\n        /* \"#utility.yul\":6322:6415   */\n      tag_150\n        /* \"#utility.yul\":6411:6414   */\n      dup3\n        /* \"#utility.yul\":6322:6415   */\n      tag_60\n      jump\t// in\n    tag_150:\n        /* \"#utility.yul\":6440:6442   */\n      0x20\n        /* \"#utility.yul\":6435:6438   */\n      dup3\n        /* \"#utility.yul\":6431:6443   */\n      add\n        /* \"#utility.yul\":6424:6443   */\n      swap1\n      pop\n        /* \"#utility.yul\":6083:6449   */\n      swap2\n      swap1\n      pop\n      jump\t// out\n        /* \"#utility.yul\":6455:6874   */\n    tag_31:\n        /* \"#utility.yul\":6621:6625   */\n      0x00\n        /* \"#utility.yul\":6659:6661   */\n      0x20\n        /* \"#utility.yul\":6648:6657   */\n      dup3\n        /* \"#utility.yul\":6644:6662   */\n      add\n        /* \"#utility.yul\":6636:6662   */\n      swap1\n      pop\n        /* \"#utility.yul\":6708:6717   */\n      dup2\n        /* \"#utility.yul\":6702:6706   */\n      dup2\n        /* \"#utility.yul\":6698:6718   */\n      sub\n        /* \"#utility.yul\":6694:6695   */\n      0x00\n        /* \"#utility.yul\":6683:6692   */\n      dup4\n        /* \"#utility.yul\":6679:6696   */\n      add\n        /* \"#utility.yul\":6672:6719   */\n      mstore\n        /* \"#utility.yul\":6736:6867   */\n      tag_152\n        /* \"#utility.yul\":6862:6866   */\n      dup2\n        /* \"#utility.yul\":6736:6867   */\n      tag_61\n      jump\t// in\n    tag_152:\n        /* \"#utility.yul\":6728:6867   */\n      swap1\n      pop\n        /* \"#utility.yul\":6455:6874   */\n      swap2\n      swap1\n      pop\n      jump\t// out\n        /* \"#utility.yul\":6880:7045   */\n    tag_62:\n        /* \"#utility.yul\":7020:7037   */\n      0x496e76616c696420616464726573730000000000000000000000000000000000\n        /* \"#utility.yul\":7016:7017   */\n      0x00\n        /* \"#utility.yul\":7008:7014   */\n      dup3\n        /* \"#utility.yul\":7004:7018   */\n      add\n        /* \"#utility.yul\":6997:7038   */\n      mstore\n        /* \"#utility.yul\":6880:7045   */\n      pop\n      jump\t// out\n        /* \"#utility.yul\":7051:7417   */\n    tag_63:\n        /* \"#utility.yul\":7193:7196   */\n      0x00\n        /* \"#utility.yul\":7214:7281   */\n      tag_155\n        /* \"#utility.yul\":7278:7280   */\n      0x0f\n        /* \"#utility.yul\":7273:7276   */\n      dup4\n        /* \"#utility.yul\":7214:7281   */\n      tag_55\n      jump\t// in\n    tag_155:\n        /* \"#utility.yul\":7207:7281   */\n      swap2\n      pop\n        /* \"#utility.yul\":7290:7383   */\n      tag_156\n        /* \"#utility.yul\":7379:7382   */\n      dup3\n        /* \"#utility.yul\":7290:7383   */\n      tag_62\n      jump\t// in\n    tag_156:\n        /* \"#utility.yul\":7408:7410   */\n      0x20\n        /* \"#utility.yul\":7403:7406   */\n      dup3\n        /* \"#utility.yul\":7399:7411   */\n      add\n        /* \"#utility.yul\":7392:7411   */\n      swap1\n      pop\n        /* \"#utility.yul\":7051:7417   */\n      swap2\n      swap1\n      pop\n      jump\t// out\n        /* \"#utility.yul\":7423:7842   */\n    tag_34:\n        /* \"#utility.yul\":7589:7593   */\n      0x00\n        /* \"#utility.yul\":7627:7629   */\n      0x20\n        /* \"#utility.yul\":7616:7625   */\n      dup3\n        /* \"#utility.yul\":7612:7630   */\n      add\n        /* \"#utility.yul\":7604:7630   */\n      swap1\n      pop\n        /* \"#utility.yul\":7676:7685   */\n      dup2\n        /* \"#utility.yul\":7670:7674   */\n      dup2\n        /* \"#utility.yul\":7666:7686   */\n      sub\n        /* \"#utility.yul\":7662:7663   */\n      0x00\n        /* \"#utility.yul\":7651:7660   */\n      dup4\n        /* \"#utility.yul\":7647:7664   */\n      add\n        /* \"#utility.yul\":7640:7687   */\n      mstore\n        /* \"#utility.yul\":7704:7835   */\n      tag_158\n        /* \"#utility.yul\":7830:7834   */\n      dup2\n        /* \"#utility.yul\":7704:7835   */\n      tag_63\n      jump\t// in\n    tag_158:\n        /* \"#utility.yul\":7696:7835   */\n      swap1\n      pop\n        /* \"#utility.yul\":7423:7842   */\n      swap2\n      swap1\n      pop\n      jump\t// out\n        /* \"#utility.yul\":7848:7989   */\n    tag_64:\n        /* \"#utility.yul\":7897:7901   */\n      0x00\n        /* \"#utility.yul\":7920:7923   */\n      dup2\n        /* \"#utility.yul\":7912:7923   */\n      swap1\n      pop\n        /* \"#utility.yul\":7943:7946   */\n      dup2\n        /* \"#utility.yul\":7940:7941   */\n      0x00\n        /* \"#utility.yul\":7933:7947   */\n      mstore\n        /* \"#utility.yul\":7977:7981   */\n      0x20\n        /* \"#utility.yul\":7974:7975   */\n      0x00\n        /* \"#utility.yul\":7964:7982   */\n      keccak256\n        /* \"#utility.yul\":7956:7982   */\n      swap1\n      pop\n        /* \"#utility.yul\":7848:7989   */\n      swap2\n      swap1\n      pop\n      jump\t// out\n        /* \"#utility.yul\":7995:8088   */\n    tag_65:\n        /* \"#utility.yul\":8032:8038   */\n      0x00\n        /* \"#utility.yul\":8079:8081   */\n      0x20\n        /* \"#utility.yul\":8074:8076   */\n      0x1f\n        /* \"#utility.yul\":8067:8072   */\n      dup4\n        /* \"#utility.yul\":8063:8077   */\n      add\n        /* \"#utility.yul\":8059:8082   */\n      div\n        /* \"#utility.yul\":8049:8082   */\n      swap1\n      pop\n        /* \"#utility.yul\":7995:8088   */\n      swap2\n      swap1\n      pop\n      jump\t// out\n        /* \"#utility.yul\":8094:8201   */\n    tag_66:\n        /* \"#utility.yul\":8138:8146   */\n      0x00\n        /* \"#utility.yul\":8188:8193   */\n      dup3\n        /* \"#utility.yul\":8182:8186   */\n      dup3\n        /* \"#utility.yul\":8178:8194   */\n      shl\n        /* \"#utility.yul\":8157:8194   */\n      swap1\n      pop\n        /* \"#utility.yul\":8094:8201   */\n      swap3\n      swap2\n      pop\n      pop\n      jump\t// out\n        /* \"#utility.yul\":8207:8600   */\n    tag_67:\n        /* \"#utility.yul\":8276:8282   */\n      0x00\n        /* \"#utility.yul\":8326:8327   */\n      0x08\n        /* \"#utility.yul\":8314:8324   */\n      dup4\n        /* \"#utility.yul\":8310:8328   */\n      mul\n        /* \"#utility.yul\":8349:8446   */\n      tag_163\n        /* \"#utility.yul\":8379:8445   */\n      0xffffffffffffffffffffffffffffffffffffffffffffffffffffffffffffffff\n        /* \"#utility.yul\":8368:8377   */\n      dup3\n        /* \"#utility.yul\":8349:8446   */\n      tag_66\n      jump\t// in\n    tag_163:\n        /* \"#utility.yul\":8467:8506   */\n      tag_164\n        /* \"#utility.yul\":8497:8505   */\n      dup7\n        /* \"#utility.yul\":8486:8495   */\n      dup4\n        /* \"#utility.yul\":8467:8506   */\n      tag_66\n      jump\t// in\n    tag_164:\n        /* \"#utility.yul\":8455:8506   */\n      swap6\n      pop\n        /* \"#utility.yul\":8539:8543   */\n      dup1\n        /* \"#utility.yul\":8535:8544   */\n      not\n        /* \"#utility.yul\":8528:8533   */\n      dup5\n        /* \"#utility.yul\":8524:8545   */\n      and\n        /* \"#utility.yul\":8515:8545   */\n      swap4\n      pop\n        /* \"#utility.yul\":8588:8592   */\n      dup1\n        /* \"#utility.yul\":8578:8586   */\n      dup7\n        /* \"#utility.yul\":8574:8593   */\n      and\n        /* \"#utility.yul\":8567:8572   */\n      dup5\n        /* \"#utility.yul\":8564:8594   */\n      or\n        /* \"#utility.yul\":8554:8594   */\n      swap3\n      pop\n        /* \"#utility.yul\":8283:8600   */\n      pop\n      pop\n        /* \"#utility.yul\":8207:8600   */\n      swap4\n      swap3\n      pop\n      pop\n      pop\n      jump\t// out\n        /* \"#utility.yul\":8606:8683   */\n    tag_68:\n        /* \"#utility.yul\":8643:8650   */\n      0x00\n        /* \"#utility.yul\":8672:8677   */\n      dup2\n        /* \"#utility.yul\":8661:8677   */\n      swap1\n      pop\n        /* \"#utility.yul\":8606:8683   */\n      swap2\n      swap1\n      pop\n      jump\t// out\n        /* \"#utility.yul\":8689:8749   */\n    tag_69:\n        /* \"#utility.yul\":8717:8720   */\n      0x00\n        /* \"#utility.yul\":8738:8743   */\n      dup2\n        /* \"#utility.yul\":8731:8743   */\n      swap1\n      pop\n        /* \"#utility.yul\":8689:8749   */\n      swap2\n      swap1\n      pop\n      jump\t// out\n        /* \"#utility.yul\":8755:8897   */\n    tag_70:\n        /* \"#utility.yul\":8805:8814   */\n      0x00\n        /* \"#utility.yul\":8838:8891   */\n      tag_168\n        /* \"#utility.yul\":8856:8890   */\n      tag_169\n        /* \"#utility.yul\":8865:8889   */\n      tag_170\n        /* \"#utility.yul\":8883:8888   */\n      dup5\n        /* \"#utility.yul\":8865:8889   */\n      tag_68\n      jump\t// in\n    tag_170:\n        /* \"#utility.yul\":8856:8890   */\n      tag_69\n      jump\t// in\n    tag_169:\n        /* \"#utility.yul\":8838:8891   */\n      tag_68\n      jump\t// in\n    tag_168:\n        /* \"#utility.yul\":8825:8891   */\n      swap1\n      pop\n        /* \"#utility.yul\":8755:8897   */\n      swap2\n      swap1\n      pop\n      jump\t// out\n        /* \"#utility.yul\":8903:8978   */\n    tag_71:\n        /* \"#utility.yul\":8946:8949   */\n      0x00\n        /* \"#utility.yul\":8967:8972   */\n      dup2\n        /* \"#utility.yul\":8960:8972   */\n      swap1\n      pop\n        /* \"#utility.yul\":8903:8978   */\n      swap2\n      swap1\n      pop\n      jump\t// out\n        /* \"#utility.yul\":8984:9253   */\n    tag_72:\n        /* \"#utility.yul\":9094:9133   */\n      tag_173\n        /* \"#utility.yul\":9125:9132   */\n      dup4\n        /* \"#utility.yul\":9094:9133   */\n      tag_70\n      jump\t// in\n    tag_173:\n        /* \"#utility.yul\":9155:9246   */\n      tag_174\n        /* \"#utility.yul\":9204:9245   */\n      tag_175\n        /* \"#utility.yul\":9228:9244   */\n      dup3\n        /* \"#utility.yul\":9204:9245   */\n      tag_71\n      jump\t// in\n    tag_175:\n        /* \"#utility.yul\":9196:9202   */\n      dup5\n        /* \"#utility.yul\":9189:9193   */\n      dup5\n        /* \"#utility.yul\":9183:9194   */\n      sload\n        /* \"#utility.yul\":9155:9246   */\n      tag_67\n      jump\t// in\n    tag_174:\n        /* \"#utility.yul\":9149:9153   */\n      dup3\n        /* \"#utility.yul\":9142:9247   */\n      sstore\n        /* \"#utility.yul\":9060:9253   */\n      pop\n        /* \"#utility.yul\":8984:9253   */\n      pop\n      pop\n      pop\n      jump\t// out\n        /* \"#utility.yul\":9259:9332   */\n    tag_73:\n        /* \"#utility.yul\":9304:9307   */\n      0x00\n        /* \"#utility.yul\":9259:9332   */\n      swap1\n      jump\t// out\n        /* \"#utility.yul\":9338:9527   */\n    tag_74:\n        /* \"#utility.yul\":9415:9447   */\n      tag_178\n      tag_73\n      jump\t// in\n    tag_178:\n        /* \"#utility.yul\":9456:9521   */\n      tag_179\n        /* \"#utility.yul\":9514:9520   */\n      dup2\n        /* \"#utility.yul\":9506:9512   */\n      dup5\n        /* \"#utility.yul\":9500:9504   */\n      dup5\n        /* \"#utility.yul\":9456:9521   */\n      tag_72\n      jump\t// in\n    tag_179:\n        /* \"#utility.yul\":9391:9527   */\n      pop\n        /* \"#utility.yul\":9338:9527   */\n      pop\n      pop\n      jump\t// out\n        /* \"#utility.yul\":9533:9719   */\n    tag_75:\n        /* \"#utility.yul\":9593:9713   */\n    tag_181:\n        /* \"#utility.yul\":9610:9613   */\n      dup2\n        /* \"#utility.yul\":9603:9608   */\n      dup2\n        /* \"#utility.yul\":9600:9614   */\n      lt\n        /* \"#utility.yul\":9593:9713   */\n      iszero\n      tag_183\n      jumpi\n        /* \"#utility.yul\":9664:9703   */\n      tag_184\n        /* \"#utility.yul\":9701:9702   */\n      0x00\n        /* \"#utility.yul\":9694:9699   */\n      dup3\n        /* \"#utility.yul\":9664:9703   */\n      tag_74\n      jump\t// in\n    tag_184:\n        /* \"#utility.yul\":9637:9638   */\n      0x01\n        /* \"#utility.yul\":9630:9635   */\n      dup2\n        /* \"#utility.yul\":9626:9639   */\n      add\n        /* \"#utility.yul\":9617:9639   */\n      swap1\n      pop\n        /* \"#utility.yul\":9593:9713   */\n      jump(tag_181)\n    tag_183:\n        /* \"#utility.yul\":9533:9719   */\n      pop\n      pop\n      jump\t// out\n        /* \"#utility.yul\":9725:10268   */\n    tag_76:\n        /* \"#utility.yul\":9826:9828   */\n      0x1f\n        /* \"#utility.yul\":9821:9824   */\n      dup3\n        /* \"#utility.yul\":9818:9829   */\n      gt\n        /* \"#utility.yul\":9815:10261   */\n      iszero\n      tag_186\n      jumpi\n        /* \"#utility.yul\":9860:9898   */\n      tag_187\n        /* \"#utility.yul\":9892:9897   */\n      dup2\n        /* \"#utility.yul\":9860:9898   */\n      tag_64\n      jump\t// in\n    tag_187:\n        /* \"#utility.yul\":9944:9973   */\n      tag_188\n        /* \"#utility.yul\":9962:9972   */\n      dup5\n        /* \"#utility.yul\":9944:9973   */\n      tag_65\n      jump\t// in\n    tag_188:\n        /* \"#utility.yul\":9934:9942   */\n      dup2\n        /* \"#utility.yul\":9930:9974   */\n      add\n        /* \"#utility.yul\":10127:10129   */\n      0x20\n        /* \"#utility.yul\":10115:10125   */\n      dup6\n        /* \"#utility.yul\":10112:10130   */\n      lt\n        /* \"#utility.yul\":10109:10158   */\n      iszero\n      tag_189\n      jumpi\n        /* \"#utility.yul\":10148:10156   */\n      dup2\n        /* \"#utility.yul\":10133:10156   */\n      swap1\n      pop\n        /* \"#utility.yul\":10109:10158   */\n    tag_189:\n        /* \"#utility.yul\":10171:10251   */\n      tag_190\n        /* \"#utility.yul\":10227:10249   */\n      tag_191\n        /* \"#utility.yul\":10245:10248   */\n      dup6\n        /* \"#utility.yul\":10227:10249   */\n      tag_65\n      jump\t// in\n    tag_191:\n        /* \"#utility.yul\":10217:10225   */\n      dup4\n        /* \"#utility.yul\":10213:10250   */\n      add\n        /* \"#utility.yul\":10200:10211   */\n      dup3\n        /* \"#utility.yul\":10171:10251   */\n      tag_75\n      jump\t// in\n    tag_190:\n        /* \"#utility.yul\":9830:10261   */\n      pop\n      pop\n        /* \"#utility.yul\":9815:10261   */\n    tag_186:\n        /* \"#utility.yul\":9725:10268   */\n      pop\n      pop\n      pop\n      jump\t// out\n        /* \"#utility.yul\":10274:10391   */\n    tag_77:\n        /* \"#utility.yul\":10328:10336   */\n      0x00\n        /* \"#utility.yul\":10378:10383   */\n      dup3\n        /* \"#utility.yul\":10372:10376   */\n      dup3\n        /* \"#utility.yul\":10368:10384   */\n      shr\n        /* \"#utility.yul\":10347:10384   */\n      swap1\n      pop\n        /* \"#utility.yul\":10274:10391   */\n      swap3\n      swap2\n      pop\n      pop\n      jump\t// out\n        /* \"#utility.yul\":10397:10566   */\n    tag_78:\n        /* \"#utility.yul\":10441:10447   */\n      0x00\n        /* \"#utility.yul\":10474:10525   */\n      tag_194\n        /* \"#utility.yul\":10522:10523   */\n      0x00\n        /* \"#utility.yul\":10518:10524   */\n      not\n        /* \"#utility.yul\":10510:10515   */\n      dup5\n        /* \"#utility.yul\":10507:10508   */\n      0x08\n        /* \"#utility.yul\":10503:10516   */\n      mul\n        /* \"#utility.yul\":10474:10525   */\n      tag_77\n      jump\t// in\n    tag_194:\n        /* \"#utility.yul\":10470:10526   */\n      not\n        /* \"#utility.yul\":10555:10559   */\n      dup1\n        /* \"#utility.yul\":10549:10553   */\n      dup4\n        /* \"#utility.yul\":10545:10560   */\n      and\n        /* \"#utility.yul\":10535:10560   */\n      swap2\n      pop\n        /* \"#utility.yul\":10448:10566   */\n      pop\n        /* \"#utility.yul\":10397:10566   */\n      swap3\n      swap2\n      pop\n      pop\n      jump\t// out\n        /* \"#utility.yul\":10571:10866   */\n    tag_79:\n        /* \"#utility.yul\":10647:10651   */\n      0x00\n        /* \"#utility.yul\":10793:10822   */\n      tag_196\n        /* \"#utility.yul\":10818:10821   */\n      dup4\n        /* \"#utility.yul\":10812:10816   */\n      dup4\n        /* \"#utility.yul\":10793:10822   */\n      tag_78\n      jump\t// in\n    tag_196:\n        /* \"#utility.yul\":10785:10822   */\n      swap2\n      pop\n        /* \"#utility.yul\":10855:10858   */\n      dup3\n        /* \"#utility.yul\":10852:10853   */\n      0x02\n        /* \"#utility.yul\":10848:10859   */\n      mul\n        /* \"#utility.yul\":10842:10846   */\n      dup3\n        /* \"#utility.yul\":10839:10860   */\n      or\n        /* \"#utility.yul\":10831:10860   */\n      swap1\n      pop\n        /* \"#utility.yul\":10571:10866   */\n      swap3\n      swap2\n      pop\n      pop\n      jump\t// out\n        /* \"#utility.yul\":10871:12266   */\n    tag_36:\n        /* \"#utility.yul\":10988:11025   */\n      tag_198\n        /* \"#utility.yul\":11021:11024   */\n      dup3\n        /* \"#utility.yul\":10988:11025   */\n      tag_54\n      jump\t// in\n    tag_198:\n        /* \"#utility.yul\":11090:11108   */\n      0xffffffffffffffff\n        /* \"#utility.yul\":11082:11088   */\n      dup2\n        /* \"#utility.yul\":11079:11109   */\n      gt\n        /* \"#utility.yul\":11076:11132   */\n      iszero\n      tag_199\n      jumpi\n        /* \"#utility.yul\":11112:11130   */\n      tag_200\n      tag_47\n      jump\t// in\n    tag_200:\n        /* \"#utility.yul\":11076:11132   */\n    tag_199:\n        /* \"#utility.yul\":11156:11194   */\n      tag_201\n        /* \"#utility.yul\":11188:11192   */\n      dup3\n        /* \"#utility.yul\":11182:11193   */\n      sload\n        /* \"#utility.yul\":11156:11194   */\n      tag_18\n      jump\t// in\n    tag_201:\n        /* \"#utility.yul\":11241:11308   */\n      tag_202\n        /* \"#utility.yul\":11301:11307   */\n      dup3\n        /* \"#utility.yul\":11293:11299   */\n      dup3\n        /* \"#utility.yul\":11287:11291   */\n      dup6\n        /* \"#utility.yul\":11241:11308   */\n      tag_76\n      jump\t// in\n    tag_202:\n        /* \"#utility.yul\":11335:11336   */\n      0x00\n        /* \"#utility.yul\":11359:11363   */\n      0x20\n        /* \"#utility.yul\":11346:11363   */\n      swap1\n      pop\n        /* \"#utility.yul\":11391:11393   */\n      0x1f\n        /* \"#utility.yul\":11383:11389   */\n      dup4\n        /* \"#utility.yul\":11380:11394   */\n      gt\n        /* \"#utility.yul\":11408:11409   */\n      0x01\n        /* \"#utility.yul\":11403:12021   */\n      dup2\n      eq\n      tag_204\n      jumpi\n        /* \"#utility.yul\":12065:12066   */\n      0x00\n        /* \"#utility.yul\":12082:12088   */\n      dup5\n        /* \"#utility.yul\":12079:12156   */\n      iszero\n      tag_205\n      jumpi\n        /* \"#utility.yul\":12131:12140   */\n      dup3\n        /* \"#utility.yul\":12126:12129   */\n      dup8\n        /* \"#utility.yul\":12122:12141   */\n      add\n        /* \"#utility.yul\":12116:12142   */\n      mload\n        /* \"#utility.yul\":12107:12142   */\n      swap1\n      pop\n        /* \"#utility.yul\":12079:12156   */\n    tag_205:\n        /* \"#utility.yul\":12182:12249   */\n      tag_206\n        /* \"#utility.yul\":12242:12248   */\n      dup6\n        /* \"#utility.yul\":12235:12240   */\n      dup3\n        /* \"#utility.yul\":12182:12249   */\n      tag_79\n      jump\t// in\n    tag_206:\n        /* \"#utility.yul\":12176:12180   */\n      dup7\n        /* \"#utility.yul\":12169:12250   */\n      sstore\n        /* \"#utility.yul\":12038:12260   */\n      pop\n        /* \"#utility.yul\":11373:12260   */\n      jump(tag_203)\n        /* \"#utility.yul\":11403:12021   */\n    tag_204:\n        /* \"#utility.yul\":11455:11459   */\n      0x1f\n        /* \"#utility.yul\":11451:11460   */\n      not\n        /* \"#utility.yul\":11443:11449   */\n      dup5\n        /* \"#utility.yul\":11439:11461   */\n      and\n        /* \"#utility.yul\":11489:11526   */\n      tag_207\n        /* \"#utility.yul\":11521:11525   */\n      dup7\n        /* \"#utility.yul\":11489:11526   */\n      tag_64\n      jump\t// in\n    tag_207:\n        /* \"#utility.yul\":11548:11549   */\n      0x00\n        /* \"#utility.yul\":11562:11770   */\n    tag_208:\n        /* \"#utility.yul\":11576:11583   */\n      dup3\n        /* \"#utility.yul\":11573:11574   */\n      dup2\n        /* \"#utility.yul\":11570:11584   */\n      lt\n        /* \"#utility.yul\":11562:11770   */\n      iszero\n      tag_210\n      jumpi\n        /* \"#utility.yul\":11655:11664   */\n      dup5\n        /* \"#utility.yul\":11650:11653   */\n      dup10\n        /* \"#utility.yul\":11646:11665   */\n      add\n        /* \"#utility.yul\":11640:11666   */\n      mload\n        /* \"#utility.yul\":11632:11638   */\n      dup3\n        /* \"#utility.yul\":11625:11667   */\n      sstore\n        /* \"#utility.yul\":11706:11707   */\n      0x01\n        /* \"#utility.yul\":11698:11704   */\n      dup3\n        /* \"#utility.yul\":11694:11708   */\n      add\n        /* \"#utility.yul\":11684:11708   */\n      swap2\n      pop\n        /* \"#utility.yul\":11753:11755   */\n      0x20\n        /* \"#utility.yul\":11742:11751   */\n      dup6\n        /* \"#utility.yul\":11738:11756   */\n      add\n        /* \"#utility.yul\":11725:11756   */\n      swap5\n      pop\n        /* \"#utility.yul\":11599:11603   */\n      0x20\n        /* \"#utility.yul\":11596:11597   */\n      dup2\n        /* \"#utility.yul\":11592:11604   */\n      add\n        /* \"#utility.yul\":11587:11604   */\n      swap1\n      pop\n        /* \"#utility.yul\":11562:11770   */\n      jump(tag_208)\n    tag_210:\n        /* \"#utility.yul\":11798:11804   */\n      dup7\n        /* \"#utility.yul\":11789:11796   */\n      dup4\n        /* \"#utility.yul\":11786:11805   */\n      lt\n        /* \"#utility.yul\":11783:11962   */\n      iszero\n      tag_211\n      jumpi\n        /* \"#utility.yul\":11856:11865   */\n      dup5\n        /* \"#utility.yul\":11851:11854   */\n      dup10\n        /* \"#utility.yul\":11847:11866   */\n      add\n        /* \"#utility.yul\":11841:11867   */\n      mload\n        /* \"#utility.yul\":11899:11947   */\n      tag_212\n        /* \"#utility.yul\":11941:11945   */\n      0x1f\n        /* \"#utility.yul\":11933:11939   */\n      dup10\n        /* \"#utility.yul\":11929:11946   */\n      and\n        /* \"#utility.yul\":11918:11927   */\n      dup3\n        /* \"#utility.yul\":11899:11947   */\n      tag_78\n      jump\t// in\n    tag_212:\n        /* \"#utility.yul\":11891:11897   */\n      dup4\n        /* \"#utility.yul\":11884:11948   */\n      sstore\n        /* \"#utility.yul\":11806:11962   */\n      pop\n        /* \"#utility.yul\":11783:11962   */\n    tag_211:\n        /* \"#utility.yul\":12008:12009   */\n      0x01\n        /* \"#utility.yul\":12004:12005   */\n      0x02\n        /* \"#utility.yul\":11996:12002   */\n      dup9\n        /* \"#utility.yul\":11992:12006   */\n      mul\n        /* \"#utility.yul\":11988:12010   */\n      add\n        /* \"#utility.yul\":11982:11986   */\n      dup9\n        /* \"#utility.yul\":11975:12011   */\n      sstore\n        /* \"#utility.yul\":11410:12021   */\n      pop\n      pop\n      pop\n        /* \"#utility.yul\":11373:12260   */\n    tag_203:\n      pop\n        /* \"#utility.yul\":10963:12266   */\n      pop\n      pop\n      pop\n        /* \"#utility.yul\":10871:12266   */\n      pop\n      pop\n      jump\t// out\n\n    auxdata: 0xa26469706673582212208cd5c33e9e28bae08050d87e4b926e7fecac30e0351239be60258b8402ef23fb64736f6c63430008180033\n}\n",
				"bytecode": {
					"linkReferences": {},
					"object": "608060405234801562000010575f80fd5b5060405162000f9338038062000f93833981810160405281019062000036919062000228565b81805f9081620000479190620004e2565b503360015f6101000a81548173ffffffffffffffffffffffffffffffffffffffff021916908373ffffffffffffffffffffffffffffffffffffffff1602179055505080600390816200009a9190620004e2565b505050620005c6565b5f604051905090565b5f80fd5b5f80fd5b5f80fd5b5f80fd5b5f601f19601f8301169050919050565b7f4e487b71000000000000000000000000000000000000000000000000000000005f52604160045260245ffd5b6200010482620000bc565b810181811067ffffffffffffffff82111715620001265762000125620000cc565b5b80604052505050565b5f6200013a620000a3565b9050620001488282620000f9565b919050565b5f67ffffffffffffffff8211156200016a5762000169620000cc565b5b6200017582620000bc565b9050602081019050919050565b5f5b83811015620001a157808201518184015260208101905062000184565b5f8484015250505050565b5f620001c2620001bc846200014d565b6200012f565b905082815260208101848484011115620001e157620001e0620000b8565b5b620001ee84828562000182565b509392505050565b5f82601f8301126200020d576200020c620000b4565b5b81516200021f848260208601620001ac565b91505092915050565b5f8060408385031215620002415762000240620000ac565b5b5f83015167ffffffffffffffff811115620002615762000260620000b0565b5b6200026f85828601620001f6565b925050602083015167ffffffffffffffff811115620002935762000292620000b0565b5b620002a185828601620001f6565b9150509250929050565b5f81519050919050565b7f4e487b71000000000000000000000000000000000000000000000000000000005f52602260045260245ffd5b5f6002820490506001821680620002fa57607f821691505b60208210810362000310576200030f620002b5565b5b50919050565b5f819050815f5260205f209050919050565b5f6020601f8301049050919050565b5f82821b905092915050565b5f60088302620003747fffffffffffffffffffffffffffffffffffffffffffffffffffffffffffffffff8262000337565b62000380868362000337565b95508019841693508086168417925050509392505050565b5f819050919050565b5f819050919050565b5f620003ca620003c4620003be8462000398565b620003a1565b62000398565b9050919050565b5f819050919050565b620003e583620003aa565b620003fd620003f482620003d1565b84845462000343565b825550505050565b5f90565b6200041362000405565b62000420818484620003da565b505050565b5b8181101562000447576200043b5f8262000409565b60018101905062000426565b5050565b601f8211156200049657620004608162000316565b6200046b8462000328565b810160208510156200047b578190505b620004936200048a8562000328565b83018262000425565b50505b505050565b5f82821c905092915050565b5f620004b85f19846008026200049b565b1980831691505092915050565b5f620004d28383620004a7565b9150826002028217905092915050565b620004ed82620002ab565b67ffffffffffffffff811115620005095762000508620000cc565b5b620005158254620002e2565b620005228282856200044b565b5f60209050601f83116001811462000558575f841562000543578287015190505b6200054f8582620004c5565b865550620005be565b601f198416620005688662000316565b5f5b8281101562000591578489015182556001820191506020850194506020810190506200056a565b86831015620005b15784890151620005ad601f891682620004a7565b8355505b6001600288020188555050505b505050505050565b6109bf80620005d45f395ff3fe608060405234801561000f575f80fd5b5060043610610034575f3560e01c8063edf5a5be14610038578063fbbf93a014610054575b5f80fd5b610052600480360381019061004d91906104c1565b610074565b005b61005c610082565b60405161006b939291906105a4565b60405180910390f35b61007e82826101ca565b5050565b6060805f80600360015f9054906101000a900473ffffffffffffffffffffffffffffffffffffffff168280546100b790610614565b80601f01602080910402602001604051908101604052809291908181526020018280546100e390610614565b801561012e5780601f106101055761010080835404028352916020019161012e565b820191905f5260205f20905b81548152906001019060200180831161011157829003601f168201915b5050505050925081805461014190610614565b80601f016020809104026020016040519081016040528092919081815260200182805461016d90610614565b80156101b85780601f1061018f576101008083540402835291602001916101b8565b820191905f5260205f20905b81548152906001019060200180831161019b57829003601f168201915b50505050509150925092509250909192565b3373ffffffffffffffffffffffffffffffffffffffff1660015f9054906101000a900473ffffffffffffffffffffffffffffffffffffffff1673ffffffffffffffffffffffffffffffffffffffff1614610259576040517f08c379a00000000000000000000000000000000000000000000000000000000081526004016102509061068e565b60405180910390fd5b5f73ffffffffffffffffffffffffffffffffffffffff168273ffffffffffffffffffffffffffffffffffffffff16036102c7576040517f08c379a00000000000000000000000000000000000000000000000000000000081526004016102be906106f6565b60405180910390fd5b8160015f6101000a81548173ffffffffffffffffffffffffffffffffffffffff021916908373ffffffffffffffffffffffffffffffffffffffff160217905550805f908161031591906108ba565b505050565b5f604051905090565b5f80fd5b5f80fd5b5f73ffffffffffffffffffffffffffffffffffffffff82169050919050565b5f6103548261032b565b9050919050565b6103648161034a565b811461036e575f80fd5b50565b5f8135905061037f8161035b565b92915050565b5f80fd5b5f80fd5b5f601f19601f8301169050919050565b7f4e487b71000000000000000000000000000000000000000000000000000000005f52604160045260245ffd5b6103d38261038d565b810181811067ffffffffffffffff821117156103f2576103f161039d565b5b80604052505050565b5f61040461031a565b905061041082826103ca565b919050565b5f67ffffffffffffffff82111561042f5761042e61039d565b5b6104388261038d565b9050602081019050919050565b828183375f83830152505050565b5f61046561046084610415565b6103fb565b90508281526020810184848401111561048157610480610389565b5b61048c848285610445565b509392505050565b5f82601f8301126104a8576104a7610385565b5b81356104b8848260208601610453565b91505092915050565b5f80604083850312156104d7576104d6610323565b5b5f6104e485828601610371565b925050602083013567ffffffffffffffff81111561050557610504610327565b5b61051185828601610494565b9150509250929050565b5f81519050919050565b5f82825260208201905092915050565b5f5b83811015610552578082015181840152602081019050610537565b5f8484015250505050565b5f6105678261051b565b6105718185610525565b9350610581818560208601610535565b61058a8161038d565b840191505092915050565b61059e8161034a565b82525050565b5f6060820190508181035f8301526105bc818661055d565b905081810360208301526105d0818561055d565b90506105df6040830184610595565b949350505050565b7f4e487b71000000000000000000000000000000000000000000000000000000005f52602260045260245ffd5b5f600282049050600182168061062b57607f821691505b60208210810361063e5761063d6105e7565b5b50919050565b7f4f6e6c79206f776e65722063616e20757365206f7074696f6e210000000000005f82015250565b5f610678601a83610525565b915061068382610644565b602082019050919050565b5f6020820190508181035f8301526106a58161066c565b9050919050565b7f496e76616c6964206164647265737300000000000000000000000000000000005f82015250565b5f6106e0600f83610525565b91506106eb826106ac565b602082019050919050565b5f6020820190508181035f83015261070d816106d4565b9050919050565b5f819050815f5260205f209050919050565b5f6020601f8301049050919050565b5f82821b905092915050565b5f600883026107707fffffffffffffffffffffffffffffffffffffffffffffffffffffffffffffffff82610735565b61077a8683610735565b95508019841693508086168417925050509392505050565b5f819050919050565b5f819050919050565b5f6107be6107b96107b484610792565b61079b565b610792565b9050919050565b5f819050919050565b6107d7836107a4565b6107eb6107e3826107c5565b848454610741565b825550505050565b5f90565b6107ff6107f3565b61080a8184846107ce565b505050565b5b8181101561082d576108225f826107f7565b600181019050610810565b5050565b601f8211156108725761084381610714565b61084c84610726565b8101602085101561085b578190505b61086f61086785610726565b83018261080f565b50505b505050565b5f82821c905092915050565b5f6108925f1984600802610877565b1980831691505092915050565b5f6108aa8383610883565b9150826002028217905092915050565b6108c38261051b565b67ffffffffffffffff8111156108dc576108db61039d565b5b6108e68254610614565b6108f1828285610831565b5f60209050601f831160018114610922575f8415610910578287015190505b61091a858261089f565b865550610981565b601f19841661093086610714565b5f5b8281101561095757848901518255600182019150602085019450602081019050610932565b868310156109745784890151610970601f891682610883565b8355505b6001600288020188555050505b50505050505056fea26469706673582212208cd5c33e9e28bae08050d87e4b926e7fecac30e0351239be60258b8402ef23fb64736f6c63430008180033",
					"opcodes": "PUSH1 0x80 PUSH1 0x40 MSTORE CALLVALUE DUP1 ISZERO PUSH3 0x10 JUMPI PUSH0 DUP1 REVERT JUMPDEST POP PUSH1 0x40 MLOAD PUSH3 0xF93 CODESIZE SUB DUP1 PUSH3 0xF93 DUP4 CODECOPY DUP2 DUP2 ADD PUSH1 0x40 MSTORE DUP2 ADD SWAP1 PUSH3 0x36 SWAP2 SWAP1 PUSH3 0x228 JUMP JUMPDEST DUP2 DUP1 PUSH0 SWAP1 DUP2 PUSH3 0x47 SWAP2 SWAP1 PUSH3 0x4E2 JUMP JUMPDEST POP CALLER PUSH1 0x1 PUSH0 PUSH2 0x100 EXP DUP2 SLOAD DUP2 PUSH20 0xFFFFFFFFFFFFFFFFFFFFFFFFFFFFFFFFFFFFFFFF MUL NOT AND SWAP1 DUP4 PUSH20 0xFFFFFFFFFFFFFFFFFFFFFFFFFFFFFFFFFFFFFFFF AND MUL OR SWAP1 SSTORE POP POP DUP1 PUSH1 0x3 SWAP1 DUP2 PUSH3 0x9A SWAP2 SWAP1 PUSH3 0x4E2 JUMP JUMPDEST POP POP POP PUSH3 0x5C6 JUMP JUMPDEST PUSH0 PUSH1 0x40 MLOAD SWAP1 POP SWAP1 JUMP JUMPDEST PUSH0 DUP1 REVERT JUMPDEST PUSH0 DUP1 REVERT JUMPDEST PUSH0 DUP1 REVERT JUMPDEST PUSH0 DUP1 REVERT JUMPDEST PUSH0 PUSH1 0x1F NOT PUSH1 0x1F DUP4 ADD AND SWAP1 POP SWAP2 SWAP1 POP JUMP JUMPDEST PUSH32 0x4E487B7100000000000000000000000000000000000000000000000000000000 PUSH0 MSTORE PUSH1 0x41 PUSH1 0x4 MSTORE PUSH1 0x24 PUSH0 REVERT JUMPDEST PUSH3 0x104 DUP3 PUSH3 0xBC JUMP JUMPDEST DUP2 ADD DUP2 DUP2 LT PUSH8 0xFFFFFFFFFFFFFFFF DUP3 GT OR ISZERO PUSH3 0x126 JUMPI PUSH3 0x125 PUSH3 0xCC JUMP JUMPDEST JUMPDEST DUP1 PUSH1 0x40 MSTORE POP POP POP JUMP JUMPDEST PUSH0 PUSH3 0x13A PUSH3 0xA3 JUMP JUMPDEST SWAP1 POP PUSH3 0x148 DUP3 DUP3 PUSH3 0xF9 JUMP JUMPDEST SWAP2 SWAP1 POP JUMP JUMPDEST PUSH0 PUSH8 0xFFFFFFFFFFFFFFFF DUP3 GT ISZERO PUSH3 0x16A JUMPI PUSH3 0x169 PUSH3 0xCC JUMP JUMPDEST JUMPDEST PUSH3 0x175 DUP3 PUSH3 0xBC JUMP JUMPDEST SWAP1 POP PUSH1 0x20 DUP2 ADD SWAP1 POP SWAP2 SWAP1 POP JUMP JUMPDEST PUSH0 JUMPDEST DUP4 DUP2 LT ISZERO PUSH3 0x1A1 JUMPI DUP1 DUP3 ADD MLOAD DUP2 DUP5 ADD MSTORE PUSH1 0x20 DUP2 ADD SWAP1 POP PUSH3 0x184 JUMP JUMPDEST PUSH0 DUP5 DUP5 ADD MSTORE POP POP POP POP JUMP JUMPDEST PUSH0 PUSH3 0x1C2 PUSH3 0x1BC DUP5 PUSH3 0x14D JUMP JUMPDEST PUSH3 0x12F JUMP JUMPDEST SWAP1 POP DUP3 DUP2 MSTORE PUSH1 0x20 DUP2 ADD DUP5 DUP5 DUP5 ADD GT ISZERO PUSH3 0x1E1 JUMPI PUSH3 0x1E0 PUSH3 0xB8 JUMP JUMPDEST JUMPDEST PUSH3 0x1EE DUP5 DUP3 DUP6 PUSH3 0x182 JUMP JUMPDEST POP SWAP4 SWAP3 POP POP POP JUMP JUMPDEST PUSH0 DUP3 PUSH1 0x1F DUP4 ADD SLT PUSH3 0x20D JUMPI PUSH3 0x20C PUSH3 0xB4 JUMP JUMPDEST JUMPDEST DUP2 MLOAD PUSH3 0x21F DUP5 DUP3 PUSH1 0x20 DUP7 ADD PUSH3 0x1AC JUMP JUMPDEST SWAP2 POP POP SWAP3 SWAP2 POP POP JUMP JUMPDEST PUSH0 DUP1 PUSH1 0x40 DUP4 DUP6 SUB SLT ISZERO PUSH3 0x241 JUMPI PUSH3 0x240 PUSH3 0xAC JUMP JUMPDEST JUMPDEST PUSH0 DUP4 ADD MLOAD PUSH8 0xFFFFFFFFFFFFFFFF DUP2 GT ISZERO PUSH3 0x261 JUMPI PUSH3 0x260 PUSH3 0xB0 JUMP JUMPDEST JUMPDEST PUSH3 0x26F DUP6 DUP3 DUP7 ADD PUSH3 0x1F6 JUMP JUMPDEST SWAP3 POP POP PUSH1 0x20 DUP4 ADD MLOAD PUSH8 0xFFFFFFFFFFFFFFFF DUP2 GT ISZERO PUSH3 0x293 JUMPI PUSH3 0x292 PUSH3 0xB0 JUMP JUMPDEST JUMPDEST PUSH3 0x2A1 DUP6 DUP3 DUP7 ADD PUSH3 0x1F6 JUMP JUMPDEST SWAP2 POP POP SWAP3 POP SWAP3 SWAP1 POP JUMP JUMPDEST PUSH0 DUP2 MLOAD SWAP1 POP SWAP2 SWAP1 POP JUMP JUMPDEST PUSH32 0x4E487B7100000000000000000000000000000000000000000000000000000000 PUSH0 MSTORE PUSH1 0x22 PUSH1 0x4 MSTORE PUSH1 0x24 PUSH0 REVERT JUMPDEST PUSH0 PUSH1 0x2 DUP3 DIV SWAP1 POP PUSH1 0x1 DUP3 AND DUP1 PUSH3 0x2FA JUMPI PUSH1 0x7F DUP3 AND SWAP2 POP JUMPDEST PUSH1 0x20 DUP3 LT DUP2 SUB PUSH3 0x310 JUMPI PUSH3 0x30F PUSH3 0x2B5 JUMP JUMPDEST JUMPDEST POP SWAP2 SWAP1 POP JUMP JUMPDEST PUSH0 DUP2 SWAP1 POP DUP2 PUSH0 MSTORE PUSH1 0x20 PUSH0 KECCAK256 SWAP1 POP SWAP2 SWAP1 POP JUMP JUMPDEST PUSH0 PUSH1 0x20 PUSH1 0x1F DUP4 ADD DIV SWAP1 POP SWAP2 SWAP1 POP JUMP JUMPDEST PUSH0 DUP3 DUP3 SHL SWAP1 POP SWAP3 SWAP2 POP POP JUMP JUMPDEST PUSH0 PUSH1 0x8 DUP4 MUL PUSH3 0x374 PUSH32 0xFFFFFFFFFFFFFFFFFFFFFFFFFFFFFFFFFFFFFFFFFFFFFFFFFFFFFFFFFFFFFFFF DUP3 PUSH3 0x337 JUMP JUMPDEST PUSH3 0x380 DUP7 DUP4 PUSH3 0x337 JUMP JUMPDEST SWAP6 POP DUP1 NOT DUP5 AND SWAP4 POP DUP1 DUP7 AND DUP5 OR SWAP3 POP POP POP SWAP4 SWAP3 POP POP POP JUMP JUMPDEST PUSH0 DUP2 SWAP1 POP SWAP2 SWAP1 POP JUMP JUMPDEST PUSH0 DUP2 SWAP1 POP SWAP2 SWAP1 POP JUMP JUMPDEST PUSH0 PUSH3 0x3CA PUSH3 0x3C4 PUSH3 0x3BE DUP5 PUSH3 0x398 JUMP JUMPDEST PUSH3 0x3A1 JUMP JUMPDEST PUSH3 0x398 JUMP JUMPDEST SWAP1 POP SWAP2 SWAP1 POP JUMP JUMPDEST PUSH0 DUP2 SWAP1 POP SWAP2 SWAP1 POP JUMP JUMPDEST PUSH3 0x3E5 DUP4 PUSH3 0x3AA JUMP JUMPDEST PUSH3 0x3FD PUSH3 0x3F4 DUP3 PUSH3 0x3D1 JUMP JUMPDEST DUP5 DUP5 SLOAD PUSH3 0x343 JUMP JUMPDEST DUP3 SSTORE POP POP POP POP JUMP JUMPDEST PUSH0 SWAP1 JUMP JUMPDEST PUSH3 0x413 PUSH3 0x405 JUMP JUMPDEST PUSH3 0x420 DUP2 DUP5 DUP5 PUSH3 0x3DA JUMP JUMPDEST POP POP POP JUMP JUMPDEST JUMPDEST DUP2 DUP2 LT ISZERO PUSH3 0x447 JUMPI PUSH3 0x43B PUSH0 DUP3 PUSH3 0x409 JUMP JUMPDEST PUSH1 0x1 DUP2 ADD SWAP1 POP PUSH3 0x426 JUMP JUMPDEST POP POP JUMP JUMPDEST PUSH1 0x1F DUP3 GT ISZERO PUSH3 0x496 JUMPI PUSH3 0x460 DUP2 PUSH3 0x316 JUMP JUMPDEST PUSH3 0x46B DUP5 PUSH3 0x328 JUMP JUMPDEST DUP2 ADD PUSH1 0x20 DUP6 LT ISZERO PUSH3 0x47B JUMPI DUP2 SWAP1 POP JUMPDEST PUSH3 0x493 PUSH3 0x48A DUP6 PUSH3 0x328 JUMP JUMPDEST DUP4 ADD DUP3 PUSH3 0x425 JUMP JUMPDEST POP POP JUMPDEST POP POP POP JUMP JUMPDEST PUSH0 DUP3 DUP3 SHR SWAP1 POP SWAP3 SWAP2 POP POP JUMP JUMPDEST PUSH0 PUSH3 0x4B8 PUSH0 NOT DUP5 PUSH1 0x8 MUL PUSH3 0x49B JUMP JUMPDEST NOT DUP1 DUP4 AND SWAP2 POP POP SWAP3 SWAP2 POP POP JUMP JUMPDEST PUSH0 PUSH3 0x4D2 DUP4 DUP4 PUSH3 0x4A7 JUMP JUMPDEST SWAP2 POP DUP3 PUSH1 0x2 MUL DUP3 OR SWAP1 POP SWAP3 SWAP2 POP POP JUMP JUMPDEST PUSH3 0x4ED DUP3 PUSH3 0x2AB JUMP JUMPDEST PUSH8 0xFFFFFFFFFFFFFFFF DUP2 GT ISZERO PUSH3 0x509 JUMPI PUSH3 0x508 PUSH3 0xCC JUMP JUMPDEST JUMPDEST PUSH3 0x515 DUP3 SLOAD PUSH3 0x2E2 JUMP JUMPDEST PUSH3 0x522 DUP3 DUP3 DUP6 PUSH3 0x44B JUMP JUMPDEST PUSH0 PUSH1 0x20 SWAP1 POP PUSH1 0x1F DUP4 GT PUSH1 0x1 DUP2 EQ PUSH3 0x558 JUMPI PUSH0 DUP5 ISZERO PUSH3 0x543 JUMPI DUP3 DUP8 ADD MLOAD SWAP1 POP JUMPDEST PUSH3 0x54F DUP6 DUP3 PUSH3 0x4C5 JUMP JUMPDEST DUP7 SSTORE POP PUSH3 0x5BE JUMP JUMPDEST PUSH1 0x1F NOT DUP5 AND PUSH3 0x568 DUP7 PUSH3 0x316 JUMP JUMPDEST PUSH0 JUMPDEST DUP3 DUP2 LT ISZERO PUSH3 0x591 JUMPI DUP5 DUP10 ADD MLOAD DUP3 SSTORE PUSH1 0x1 DUP3 ADD SWAP2 POP PUSH1 0x20 DUP6 ADD SWAP5 POP PUSH1 0x20 DUP2 ADD SWAP1 POP PUSH3 0x56A JUMP JUMPDEST DUP7 DUP4 LT ISZERO PUSH3 0x5B1 JUMPI DUP5 DUP10 ADD MLOAD PUSH3 0x5AD PUSH1 0x1F DUP10 AND DUP3 PUSH3 0x4A7 JUMP JUMPDEST DUP4 SSTORE POP JUMPDEST PUSH1 0x1 PUSH1 0x2 DUP9 MUL ADD DUP9 SSTORE POP POP POP JUMPDEST POP POP POP POP POP POP JUMP JUMPDEST PUSH2 0x9BF DUP1 PUSH3 0x5D4 PUSH0 CODECOPY PUSH0 RETURN INVALID PUSH1 0x80 PUSH1 0x40 MSTORE CALLVALUE DUP1 ISZERO PUSH2 0xF JUMPI PUSH0 DUP1 REVERT JUMPDEST POP PUSH1 0x4 CALLDATASIZE LT PUSH2 0x34 JUMPI PUSH0 CALLDATALOAD PUSH1 0xE0 SHR DUP1 PUSH4 0xEDF5A5BE EQ PUSH2 0x38 JUMPI DUP1 PUSH4 0xFBBF93A0 EQ PUSH2 0x54 JUMPI JUMPDEST PUSH0 DUP1 REVERT JUMPDEST PUSH2 0x52 PUSH1 0x4 DUP1 CALLDATASIZE SUB DUP2 ADD SWAP1 PUSH2 0x4D SWAP2 SWAP1 PUSH2 0x4C1 JUMP JUMPDEST PUSH2 0x74 JUMP JUMPDEST STOP JUMPDEST PUSH2 0x5C PUSH2 0x82 JUMP JUMPDEST PUSH1 0x40 MLOAD PUSH2 0x6B SWAP4 SWAP3 SWAP2 SWAP1 PUSH2 0x5A4 JUMP JUMPDEST PUSH1 0x40 MLOAD DUP1 SWAP2 SUB SWAP1 RETURN JUMPDEST PUSH2 0x7E DUP3 DUP3 PUSH2 0x1CA JUMP JUMPDEST POP POP JUMP JUMPDEST PUSH1 0x60 DUP1 PUSH0 DUP1 PUSH1 0x3 PUSH1 0x1 PUSH0 SWAP1 SLOAD SWAP1 PUSH2 0x100 EXP SWAP1 DIV PUSH20 0xFFFFFFFFFFFFFFFFFFFFFFFFFFFFFFFFFFFFFFFF AND DUP3 DUP1 SLOAD PUSH2 0xB7 SWAP1 PUSH2 0x614 JUMP JUMPDEST DUP1 PUSH1 0x1F ADD PUSH1 0x20 DUP1 SWAP2 DIV MUL PUSH1 0x20 ADD PUSH1 0x40 MLOAD SWAP1 DUP2 ADD PUSH1 0x40 MSTORE DUP1 SWAP3 SWAP2 SWAP1 DUP2 DUP2 MSTORE PUSH1 0x20 ADD DUP3 DUP1 SLOAD PUSH2 0xE3 SWAP1 PUSH2 0x614 JUMP JUMPDEST DUP1 ISZERO PUSH2 0x12E JUMPI DUP1 PUSH1 0x1F LT PUSH2 0x105 JUMPI PUSH2 0x100 DUP1 DUP4 SLOAD DIV MUL DUP4 MSTORE SWAP2 PUSH1 0x20 ADD SWAP2 PUSH2 0x12E JUMP JUMPDEST DUP3 ADD SWAP2 SWAP1 PUSH0 MSTORE PUSH1 0x20 PUSH0 KECCAK256 SWAP1 JUMPDEST DUP2 SLOAD DUP2 MSTORE SWAP1 PUSH1 0x1 ADD SWAP1 PUSH1 0x20 ADD DUP1 DUP4 GT PUSH2 0x111 JUMPI DUP3 SWAP1 SUB PUSH1 0x1F AND DUP3 ADD SWAP2 JUMPDEST POP POP POP POP POP SWAP3 POP DUP2 DUP1 SLOAD PUSH2 0x141 SWAP1 PUSH2 0x614 JUMP JUMPDEST DUP1 PUSH1 0x1F ADD PUSH1 0x20 DUP1 SWAP2 DIV MUL PUSH1 0x20 ADD PUSH1 0x40 MLOAD SWAP1 DUP2 ADD PUSH1 0x40 MSTORE DUP1 SWAP3 SWAP2 SWAP1 DUP2 DUP2 MSTORE PUSH1 0x20 ADD DUP3 DUP1 SLOAD PUSH2 0x16D SWAP1 PUSH2 0x614 JUMP JUMPDEST DUP1 ISZERO PUSH2 0x1B8 JUMPI DUP1 PUSH1 0x1F LT PUSH2 0x18F JUMPI PUSH2 0x100 DUP1 DUP4 SLOAD DIV MUL DUP4 MSTORE SWAP2 PUSH1 0x20 ADD SWAP2 PUSH2 0x1B8 JUMP JUMPDEST DUP3 ADD SWAP2 SWAP1 PUSH0 MSTORE PUSH1 0x20 PUSH0 KECCAK256 SWAP1 JUMPDEST DUP2 SLOAD DUP2 MSTORE SWAP1 PUSH1 0x1 ADD SWAP1 PUSH1 0x20 ADD DUP1 DUP4 GT PUSH2 0x19B JUMPI DUP3 SWAP1 SUB PUSH1 0x1F AND DUP3 ADD SWAP2 JUMPDEST POP POP POP POP POP SWAP2 POP SWAP3 POP SWAP3 POP SWAP3 POP SWAP1 SWAP2 SWAP3 JUMP JUMPDEST CALLER PUSH20 0xFFFFFFFFFFFFFFFFFFFFFFFFFFFFFFFFFFFFFFFF AND PUSH1 0x1 PUSH0 SWAP1 SLOAD SWAP1 PUSH2 0x100 EXP SWAP1 DIV PUSH20 0xFFFFFFFFFFFFFFFFFFFFFFFFFFFFFFFFFFFFFFFF AND PUSH20 0xFFFFFFFFFFFFFFFFFFFFFFFFFFFFFFFFFFFFFFFF AND EQ PUSH2 0x259 JUMPI PUSH1 0x40 MLOAD PUSH32 0x8C379A000000000000000000000000000000000000000000000000000000000 DUP2 MSTORE PUSH1 0x4 ADD PUSH2 0x250 SWAP1 PUSH2 0x68E JUMP JUMPDEST PUSH1 0x40 MLOAD DUP1 SWAP2 SUB SWAP1 REVERT JUMPDEST PUSH0 PUSH20 0xFFFFFFFFFFFFFFFFFFFFFFFFFFFFFFFFFFFFFFFF AND DUP3 PUSH20 0xFFFFFFFFFFFFFFFFFFFFFFFFFFFFFFFFFFFFFFFF AND SUB PUSH2 0x2C7 JUMPI PUSH1 0x40 MLOAD PUSH32 0x8C379A000000000000000000000000000000000000000000000000000000000 DUP2 MSTORE PUSH1 0x4 ADD PUSH2 0x2BE SWAP1 PUSH2 0x6F6 JUMP JUMPDEST PUSH1 0x40 MLOAD DUP1 SWAP2 SUB SWAP1 REVERT JUMPDEST DUP2 PUSH1 0x1 PUSH0 PUSH2 0x100 EXP DUP2 SLOAD DUP2 PUSH20 0xFFFFFFFFFFFFFFFFFFFFFFFFFFFFFFFFFFFFFFFF MUL NOT AND SWAP1 DUP4 PUSH20 0xFFFFFFFFFFFFFFFFFFFFFFFFFFFFFFFFFFFFFFFF AND MUL OR SWAP1 SSTORE POP DUP1 PUSH0 SWAP1 DUP2 PUSH2 0x315 SWAP2 SWAP1 PUSH2 0x8BA JUMP JUMPDEST POP POP POP JUMP JUMPDEST PUSH0 PUSH1 0x40 MLOAD SWAP1 POP SWAP1 JUMP JUMPDEST PUSH0 DUP1 REVERT JUMPDEST PUSH0 DUP1 REVERT JUMPDEST PUSH0 PUSH20 0xFFFFFFFFFFFFFFFFFFFFFFFFFFFFFFFFFFFFFFFF DUP3 AND SWAP1 POP SWAP2 SWAP1 POP JUMP JUMPDEST PUSH0 PUSH2 0x354 DUP3 PUSH2 0x32B JUMP JUMPDEST SWAP1 POP SWAP2 SWAP1 POP JUMP JUMPDEST PUSH2 0x364 DUP2 PUSH2 0x34A JUMP JUMPDEST DUP2 EQ PUSH2 0x36E JUMPI PUSH0 DUP1 REVERT JUMPDEST POP JUMP JUMPDEST PUSH0 DUP2 CALLDATALOAD SWAP1 POP PUSH2 0x37F DUP2 PUSH2 0x35B JUMP JUMPDEST SWAP3 SWAP2 POP POP JUMP JUMPDEST PUSH0 DUP1 REVERT JUMPDEST PUSH0 DUP1 REVERT JUMPDEST PUSH0 PUSH1 0x1F NOT PUSH1 0x1F DUP4 ADD AND SWAP1 POP SWAP2 SWAP1 POP JUMP JUMPDEST PUSH32 0x4E487B7100000000000000000000000000000000000000000000000000000000 PUSH0 MSTORE PUSH1 0x41 PUSH1 0x4 MSTORE PUSH1 0x24 PUSH0 REVERT JUMPDEST PUSH2 0x3D3 DUP3 PUSH2 0x38D JUMP JUMPDEST DUP2 ADD DUP2 DUP2 LT PUSH8 0xFFFFFFFFFFFFFFFF DUP3 GT OR ISZERO PUSH2 0x3F2 JUMPI PUSH2 0x3F1 PUSH2 0x39D JUMP JUMPDEST JUMPDEST DUP1 PUSH1 0x40 MSTORE POP POP POP JUMP JUMPDEST PUSH0 PUSH2 0x404 PUSH2 0x31A JUMP JUMPDEST SWAP1 POP PUSH2 0x410 DUP3 DUP3 PUSH2 0x3CA JUMP JUMPDEST SWAP2 SWAP1 POP JUMP JUMPDEST PUSH0 PUSH8 0xFFFFFFFFFFFFFFFF DUP3 GT ISZERO PUSH2 0x42F JUMPI PUSH2 0x42E PUSH2 0x39D JUMP JUMPDEST JUMPDEST PUSH2 0x438 DUP3 PUSH2 0x38D JUMP JUMPDEST SWAP1 POP PUSH1 0x20 DUP2 ADD SWAP1 POP SWAP2 SWAP1 POP JUMP JUMPDEST DUP3 DUP2 DUP4 CALLDATACOPY PUSH0 DUP4 DUP4 ADD MSTORE POP POP POP JUMP JUMPDEST PUSH0 PUSH2 0x465 PUSH2 0x460 DUP5 PUSH2 0x415 JUMP JUMPDEST PUSH2 0x3FB JUMP JUMPDEST SWAP1 POP DUP3 DUP2 MSTORE PUSH1 0x20 DUP2 ADD DUP5 DUP5 DUP5 ADD GT ISZERO PUSH2 0x481 JUMPI PUSH2 0x480 PUSH2 0x389 JUMP JUMPDEST JUMPDEST PUSH2 0x48C DUP5 DUP3 DUP6 PUSH2 0x445 JUMP JUMPDEST POP SWAP4 SWAP3 POP POP POP JUMP JUMPDEST PUSH0 DUP3 PUSH1 0x1F DUP4 ADD SLT PUSH2 0x4A8 JUMPI PUSH2 0x4A7 PUSH2 0x385 JUMP JUMPDEST JUMPDEST DUP2 CALLDATALOAD PUSH2 0x4B8 DUP5 DUP3 PUSH1 0x20 DUP7 ADD PUSH2 0x453 JUMP JUMPDEST SWAP2 POP POP SWAP3 SWAP2 POP POP JUMP JUMPDEST PUSH0 DUP1 PUSH1 0x40 DUP4 DUP6 SUB SLT ISZERO PUSH2 0x4D7 JUMPI PUSH2 0x4D6 PUSH2 0x323 JUMP JUMPDEST JUMPDEST PUSH0 PUSH2 0x4E4 DUP6 DUP3 DUP7 ADD PUSH2 0x371 JUMP JUMPDEST SWAP3 POP POP PUSH1 0x20 DUP4 ADD CALLDATALOAD PUSH8 0xFFFFFFFFFFFFFFFF DUP2 GT ISZERO PUSH2 0x505 JUMPI PUSH2 0x504 PUSH2 0x327 JUMP JUMPDEST JUMPDEST PUSH2 0x511 DUP6 DUP3 DUP7 ADD PUSH2 0x494 JUMP JUMPDEST SWAP2 POP POP SWAP3 POP SWAP3 SWAP1 POP JUMP JUMPDEST PUSH0 DUP2 MLOAD SWAP1 POP SWAP2 SWAP1 POP JUMP JUMPDEST PUSH0 DUP3 DUP3 MSTORE PUSH1 0x20 DUP3 ADD SWAP1 POP SWAP3 SWAP2 POP POP JUMP JUMPDEST PUSH0 JUMPDEST DUP4 DUP2 LT ISZERO PUSH2 0x552 JUMPI DUP1 DUP3 ADD MLOAD DUP2 DUP5 ADD MSTORE PUSH1 0x20 DUP2 ADD SWAP1 POP PUSH2 0x537 JUMP JUMPDEST PUSH0 DUP5 DUP5 ADD MSTORE POP POP POP POP JUMP JUMPDEST PUSH0 PUSH2 0x567 DUP3 PUSH2 0x51B JUMP JUMPDEST PUSH2 0x571 DUP2 DUP6 PUSH2 0x525 JUMP JUMPDEST SWAP4 POP PUSH2 0x581 DUP2 DUP6 PUSH1 0x20 DUP7 ADD PUSH2 0x535 JUMP JUMPDEST PUSH2 0x58A DUP2 PUSH2 0x38D JUMP JUMPDEST DUP5 ADD SWAP2 POP POP SWAP3 SWAP2 POP POP JUMP JUMPDEST PUSH2 0x59E DUP2 PUSH2 0x34A JUMP JUMPDEST DUP3 MSTORE POP POP JUMP JUMPDEST PUSH0 PUSH1 0x60 DUP3 ADD SWAP1 POP DUP2 DUP2 SUB PUSH0 DUP4 ADD MSTORE PUSH2 0x5BC DUP2 DUP7 PUSH2 0x55D JUMP JUMPDEST SWAP1 POP DUP2 DUP2 SUB PUSH1 0x20 DUP4 ADD MSTORE PUSH2 0x5D0 DUP2 DUP6 PUSH2 0x55D JUMP JUMPDEST SWAP1 POP PUSH2 0x5DF PUSH1 0x40 DUP4 ADD DUP5 PUSH2 0x595 JUMP JUMPDEST SWAP5 SWAP4 POP POP POP POP JUMP JUMPDEST PUSH32 0x4E487B7100000000000000000000000000000000000000000000000000000000 PUSH0 MSTORE PUSH1 0x22 PUSH1 0x4 MSTORE PUSH1 0x24 PUSH0 REVERT JUMPDEST PUSH0 PUSH1 0x2 DUP3 DIV SWAP1 POP PUSH1 0x1 DUP3 AND DUP1 PUSH2 0x62B JUMPI PUSH1 0x7F DUP3 AND SWAP2 POP JUMPDEST PUSH1 0x20 DUP3 LT DUP2 SUB PUSH2 0x63E JUMPI PUSH2 0x63D PUSH2 0x5E7 JUMP JUMPDEST JUMPDEST POP SWAP2 SWAP1 POP JUMP JUMPDEST PUSH32 0x4F6E6C79206F776E65722063616E20757365206F7074696F6E21000000000000 PUSH0 DUP3 ADD MSTORE POP JUMP JUMPDEST PUSH0 PUSH2 0x678 PUSH1 0x1A DUP4 PUSH2 0x525 JUMP JUMPDEST SWAP2 POP PUSH2 0x683 DUP3 PUSH2 0x644 JUMP JUMPDEST PUSH1 0x20 DUP3 ADD SWAP1 POP SWAP2 SWAP1 POP JUMP JUMPDEST PUSH0 PUSH1 0x20 DUP3 ADD SWAP1 POP DUP2 DUP2 SUB PUSH0 DUP4 ADD MSTORE PUSH2 0x6A5 DUP2 PUSH2 0x66C JUMP JUMPDEST SWAP1 POP SWAP2 SWAP1 POP JUMP JUMPDEST PUSH32 0x496E76616C696420616464726573730000000000000000000000000000000000 PUSH0 DUP3 ADD MSTORE POP JUMP JUMPDEST PUSH0 PUSH2 0x6E0 PUSH1 0xF DUP4 PUSH2 0x525 JUMP JUMPDEST SWAP2 POP PUSH2 0x6EB DUP3 PUSH2 0x6AC JUMP JUMPDEST PUSH1 0x20 DUP3 ADD SWAP1 POP SWAP2 SWAP1 POP JUMP JUMPDEST PUSH0 PUSH1 0x20 DUP3 ADD SWAP1 POP DUP2 DUP2 SUB PUSH0 DUP4 ADD MSTORE PUSH2 0x70D DUP2 PUSH2 0x6D4 JUMP JUMPDEST SWAP1 POP SWAP2 SWAP1 POP JUMP JUMPDEST PUSH0 DUP2 SWAP1 POP DUP2 PUSH0 MSTORE PUSH1 0x20 PUSH0 KECCAK256 SWAP1 POP SWAP2 SWAP1 POP JUMP JUMPDEST PUSH0 PUSH1 0x20 PUSH1 0x1F DUP4 ADD DIV SWAP1 POP SWAP2 SWAP1 POP JUMP JUMPDEST PUSH0 DUP3 DUP3 SHL SWAP1 POP SWAP3 SWAP2 POP POP JUMP JUMPDEST PUSH0 PUSH1 0x8 DUP4 MUL PUSH2 0x770 PUSH32 0xFFFFFFFFFFFFFFFFFFFFFFFFFFFFFFFFFFFFFFFFFFFFFFFFFFFFFFFFFFFFFFFF DUP3 PUSH2 0x735 JUMP JUMPDEST PUSH2 0x77A DUP7 DUP4 PUSH2 0x735 JUMP JUMPDEST SWAP6 POP DUP1 NOT DUP5 AND SWAP4 POP DUP1 DUP7 AND DUP5 OR SWAP3 POP POP POP SWAP4 SWAP3 POP POP POP JUMP JUMPDEST PUSH0 DUP2 SWAP1 POP SWAP2 SWAP1 POP JUMP JUMPDEST PUSH0 DUP2 SWAP1 POP SWAP2 SWAP1 POP JUMP JUMPDEST PUSH0 PUSH2 0x7BE PUSH2 0x7B9 PUSH2 0x7B4 DUP5 PUSH2 0x792 JUMP JUMPDEST PUSH2 0x79B JUMP JUMPDEST PUSH2 0x792 JUMP JUMPDEST SWAP1 POP SWAP2 SWAP1 POP JUMP JUMPDEST PUSH0 DUP2 SWAP1 POP SWAP2 SWAP1 POP JUMP JUMPDEST PUSH2 0x7D7 DUP4 PUSH2 0x7A4 JUMP JUMPDEST PUSH2 0x7EB PUSH2 0x7E3 DUP3 PUSH2 0x7C5 JUMP JUMPDEST DUP5 DUP5 SLOAD PUSH2 0x741 JUMP JUMPDEST DUP3 SSTORE POP POP POP POP JUMP JUMPDEST PUSH0 SWAP1 JUMP JUMPDEST PUSH2 0x7FF PUSH2 0x7F3 JUMP JUMPDEST PUSH2 0x80A DUP2 DUP5 DUP5 PUSH2 0x7CE JUMP JUMPDEST POP POP POP JUMP JUMPDEST JUMPDEST DUP2 DUP2 LT ISZERO PUSH2 0x82D JUMPI PUSH2 0x822 PUSH0 DUP3 PUSH2 0x7F7 JUMP JUMPDEST PUSH1 0x1 DUP2 ADD SWAP1 POP PUSH2 0x810 JUMP JUMPDEST POP POP JUMP JUMPDEST PUSH1 0x1F DUP3 GT ISZERO PUSH2 0x872 JUMPI PUSH2 0x843 DUP2 PUSH2 0x714 JUMP JUMPDEST PUSH2 0x84C DUP5 PUSH2 0x726 JUMP JUMPDEST DUP2 ADD PUSH1 0x20 DUP6 LT ISZERO PUSH2 0x85B JUMPI DUP2 SWAP1 POP JUMPDEST PUSH2 0x86F PUSH2 0x867 DUP6 PUSH2 0x726 JUMP JUMPDEST DUP4 ADD DUP3 PUSH2 0x80F JUMP JUMPDEST POP POP JUMPDEST POP POP POP JUMP JUMPDEST PUSH0 DUP3 DUP3 SHR SWAP1 POP SWAP3 SWAP2 POP POP JUMP JUMPDEST PUSH0 PUSH2 0x892 PUSH0 NOT DUP5 PUSH1 0x8 MUL PUSH2 0x877 JUMP JUMPDEST NOT DUP1 DUP4 AND SWAP2 POP POP SWAP3 SWAP2 POP POP JUMP JUMPDEST PUSH0 PUSH2 0x8AA DUP4 DUP4 PUSH2 0x883 JUMP JUMPDEST SWAP2 POP DUP3 PUSH1 0x2 MUL DUP3 OR SWAP1 POP SWAP3 SWAP2 POP POP JUMP JUMPDEST PUSH2 0x8C3 DUP3 PUSH2 0x51B JUMP JUMPDEST PUSH8 0xFFFFFFFFFFFFFFFF DUP2 GT ISZERO PUSH2 0x8DC JUMPI PUSH2 0x8DB PUSH2 0x39D JUMP JUMPDEST JUMPDEST PUSH2 0x8E6 DUP3 SLOAD PUSH2 0x614 JUMP JUMPDEST PUSH2 0x8F1 DUP3 DUP3 DUP6 PUSH2 0x831 JUMP JUMPDEST PUSH0 PUSH1 0x20 SWAP1 POP PUSH1 0x1F DUP4 GT PUSH1 0x1 DUP2 EQ PUSH2 0x922 JUMPI PUSH0 DUP5 ISZERO PUSH2 0x910 JUMPI DUP3 DUP8 ADD MLOAD SWAP1 POP JUMPDEST PUSH2 0x91A DUP6 DUP3 PUSH2 0x89F JUMP JUMPDEST DUP7 SSTORE POP PUSH2 0x981 JUMP JUMPDEST PUSH1 0x1F NOT DUP5 AND PUSH2 0x930 DUP7 PUSH2 0x714 JUMP JUMPDEST PUSH0 JUMPDEST DUP3 DUP2 LT ISZERO PUSH2 0x957 JUMPI DUP5 DUP10 ADD MLOAD DUP3 SSTORE PUSH1 0x1 DUP3 ADD SWAP2 POP PUSH1 0x20 DUP6 ADD SWAP5 POP PUSH1 0x20 DUP2 ADD SWAP1 POP PUSH2 0x932 JUMP JUMPDEST DUP7 DUP4 LT ISZERO PUSH2 0x974 JUMPI DUP5 DUP10 ADD MLOAD PUSH2 0x970 PUSH1 0x1F DUP10 AND DUP3 PUSH2 0x883 JUMP JUMPDEST DUP4 SSTORE POP JUMPDEST PUSH1 0x1 PUSH1 0x2 DUP9 MUL ADD DUP9 SSTORE POP POP POP JUMPDEST POP POP POP POP POP POP JUMP INVALID LOG2 PUSH5 0x6970667358 0x22 SLT KECCAK256 DUP13 0xD5 0xC3 RETURNDATACOPY SWAP15 0x28 0xBA 0xE0 DUP1 POP 0xD8 PUSH31 0x4B926E7FECAC30E0351239BE60258B8402EF23FB64736F6C63430008180033 "
				},
				"gasEstimates": {
					"creation": {
						"codeDepositCost": "499000",
						"executionCost": "infinite",
						"totalCost": "infinite"
					},
					"external": {
						"getDetails()": "infinite",
						"transferOwnership(address,string)": "infinite"
					}
				},
				"methodIdentifiers": {
					"getDetails()": "fbbf93a0",
					"transferOwnership(address,string)": "edf5a5be"
				}
			},
			"storageLayout": {
				"storage": [
					{
						"astId": 22,
						"contract": "HomeWork9.sol:MusicAsset",
						"label": "name",
						"offset": 0,
						"slot": "0",
						"type": "t_string_storage"
					},
					{
						"astId": 24,
						"contract": "HomeWork9.sol:MusicAsset",
						"label": "owner",
						"offset": 0,
						"slot": "1",
						"type": "t_address"
					},
					{
						"astId": 26,
						"contract": "HomeWork9.sol:MusicAsset",
						"label": "link",
						"offset": 0,
						"slot": "2",
						"type": "t_string_storage"
					},
					{
						"astId": 163,
						"contract": "HomeWork9.sol:MusicAsset",
						"label": "nameSong",
						"offset": 0,
						"slot": "3",
						"type": "t_string_storage"
					}
				],
				"types": {
					"t_address": {
						"encoding": "inplace",
						"label": "address",
						"numberOfBytes": "20"
					},
					"t_string_storage": {
						"encoding": "bytes",
						"label": "string",
						"numberOfBytes": "32"
					}
				}
			},
			"userdoc": {
				"kind": "user",
				"methods": {},
				"version": 1
			}
		}
	}
}